:100000000C94D1080C94ED080C94ED080C94ED08B8
:100010000C94ED080C94ED080C94ED080C94ED088C
:100020000C94ED080C9429280C9426390C94EB3888
:100030000C9422250C94ED080C94ED080C94ED081A
:100040000C94ED080C94ED080C94ED080C94ED085C
:100050000C94ED080C945F280C94ED080C94ED08BA
:100060000C94ED080C94ED080C94ED080C94ED083C
:100070000C94ED080C94ED080C94ED080C94ED082C
:100080000C949A240C94ED080C94ED080C94ED0853
:100090000C94ED080C94ED080C94ED080C94ED080C
:1000A0000C94ED080C94ED080C94ED0873746163E6
:1000B0006B20636F6C6C6973696F6E2100120110A5
:1000C0000102000008EB034B2001000102DC0109E2
:1000D000023E00020100C0320904000001020201D8
:1000E000000524001001042402060524060001076F
:1000F0000582030800FF09040100020A000000074E
:100100000504021000050705830210000504030919
:100110000418034400650061006E00200043006184
:10012000006D0065007200610000002E034C005558
:10013000004600410020005500530042002D0052AF
:10014000005300320033003200200041006400619F
:1001500000700074006500720000000D0A0000527B
:10016000454320554E524541440052454320524597
:1001700041440053544F20554E53454E5400535460
:100180004F2053454E5400414C4C005E015F016AC4
:100190000173017E018701457865436D643A004132
:1001A000542B435245473F00534D532073656E64B3
:1001B000206572726F7200534D532073656E740028
:1001C00073656E64696E6720534D5300476F7420EA
:1001D000434D47522E0052656769737465726564BA
:1001E0002E0041542B434950484541443D31004184
:1001F000542B4349505153454E443D0041542B43E9
:100200004D47463D310050494E2072656164792E5C
:100210000041544530003E2043656C6C20526561BE
:100220006479203C003E2044697361626C696E67AA
:100230002043656C6C203C003E20456E61626C6919
:100240006E672043656C6C203C0021212054696D51
:10025000656F75742021210041542B434D47533D58
:10026000220041542B434D47523D0041542B434300
:100270004C4B3F0041542B434D47443D0041542BD0
:100280004353510041542B4342430073656E742025
:100290004374726C2D5A006E6F2047505253006E9B
:1002A0006F74207265676973746572656400415488
:1002B0002B43474154543F0041542B43495053452D
:1002C0004E440041542B4349505348555400415427
:1002D0002B43494943520041542B43494653520052
:1002E000222C22002C220041542B435354543D22F3
:1002F000002200222C220041542B434950535441E8
:1003000052543D22544350222C220041542B434945
:100310005041434B0041542B434950434C4F5345AC
:100320000041542B434950535441545553000D0A36
:10033000000D006964007443616C4F6666736574F8
:10034000007574634F666673657400776C6D5469ED
:100350006D656F7574007265626F6F740041504E09
:10036000006369707173656E64006970736572769D
:100370006572006C6F67496E74657276616C0050CF
:10038000494E006F6E006F666600756E7265636F32
:10039000676E697A656420636F6D6D616E64006578
:1003A00065777269746500454556616C0045454145
:1003B0006464720065657265616400736D73006EDC
:1003C0006F7469667900757074696D650043757244
:1003D00054696D650074696D650049505F506F72B6
:1003E000740049505F4164647200506173737764B4
:1003F000005573657200676574007365740064610D
:100400007461006C636400746F007374617475735D
:1004100000223A2200223A22007B00223A002020C9
:10042000002C543A002C703A002C6D3A002C713A92
:10043000002C723A002C56633A002C73743A006414
:100440006F6E65004552524F520A004F4B0A0057DB
:100450004C442074696D656F7574005A0A00490038
:10046000706F776572696E6720646F776E00202009
:100470002000513A0025202000423A00543A002042
:1004800020006173206F66200020200000151C1CD6
:1004900083AA5050013C1E080240002A2A0D78020F
:1004A0000A111D2335414B4B423A271B0809030211
:1004B0000A111D2335414B4B423A271B0809030003
:1004C0000153756E4D6F6E5475655765645468754C
:1004D000467269536174007368757474696E67203D
:1004E000646F776E2E2E2E005461646A3A200043AA
:1004F0004C4F5345204F4B00434C4F534544004312
:100500004F4E4E454354204641494C00434F4E4EBA
:10051000454354204F4B0043616C6C20526561642D
:1005200079004552524F52004E4F524D414C20508F
:100530004F57455220444F574E004F4B005244599D
:100540000053454E44204641494C0053454E4420FB
:100550004F4B0053485554204F4B00534D5320529E
:100560006561647900554E4445522D564F4C5441B7
:10057000474520504F57455220444F574E00EF04F7
:10058000F804FF040C051705220528053A053D056A
:1005900041054B0553055B05650543424300434355
:1005A0004C4B004346554E00434741545400434989
:1005B0005041434B00434D474C00434D475200438D
:1005C0004D475300434D5449004350494E00435258
:1005D00045470043535100504450009A059E05A3DF
:1005E00005A805AE05B505BA05BF05C405C905CE04
:1005F00005D305D705434F4E4E454354204F4B007E
:10060000495020434F4E46494700495020475052D9
:100610005341435400495020494E495449414C00EC
:10062000495020535441525400495020535441548E
:1006300055530050445020444541435400534552C3
:10064000564552204C495354454E494E4700544359
:100650005020434C4F5345440054435020434C4F8B
:1006600053494E470054435020434F4E4E45435448
:10067000494E470055445020434C4F534544005584
:10068000445020434C4F53494E470055445020435B
:100690004F4E4E454354494E4700F50500060A06A5
:1006A00015062006290633063D064E065906650640
:1006B00074067F068B064441544120414343455014
:1006C000543A0053544154453A2000756E726563A4
:1006D0003A00444541435400756E7265633A0052D6
:1006E000656164792100556E646572766F6C746122
:1006F00067652100506F776572656420446F776E7F
:1007000021004661696C656400436C6F7365640029
:10071000436F6E6E656374204641494C00436F6EB3
:100720006E656374204F4B002B4950442C003733C7
:10073000353300686F6C6F6772616D000000746F15
:100740006E797A2E64796E646E732E6F726700FF15
:10075000FFFFF0F0CF3CF38A20063031031818C7B2
:10076000FFBFFC31031818C7FFBFFC31011818C0C8
:10077000C606300403E1FF726C4788F107207E0350
:10078000F017023C4788F11B267FC3E010020000EF
:100790000603C0407E0C0E7080C3180C3100E73099
:1007A00007E6003C40000C7C008FE019C7011830C0
:1007B0003183021C7040FE0407C00F007E039C0CB6
:1007C0003030C0E701F803803E01CC6E19B07CC028
:1007D000F303CE1F9FE61E1CFFA0088C663198C64F
:1007E000318C63086308610C208218C318C318C6D3
:1007F000318C623188C4620010235BE38D91000C60
:100800000300C030FFFFF0C0300C0300C0F560FFF4
:10081000F0F0020C1020C1020C1020C1020C1020BC
:10082000C1001F07F1C7306E0F80F01E03C0780FA4
:1008300001E03C0EC19C71FC1F0008CFFF8C6318C7
:10084000C6318C63181F0FF987607C0600C018073B
:1008500001C0F0781C0600803007FFFFE03F0FF377
:1008600087606C0C0180707C0F801801803C0780D1
:10087000D873FC1F000180700E03C0D81B06618C6A
:10088000218C33067FFFFE0300600C01803FCFF90F
:1008900080300600DE1FE70E00E00C01803007818B
:1008A000F873FC1F000F07F9C33074018033C7FED3
:1008B000F0DC1F01E03C06C1DC71FC1F00FFFFFC07
:1008C000010060180200C030060180300401803051
:1008D00006018030001F07F1C730660CC18C61FC37
:1008E0003F8E3B01E03C0780D831FC1F001F07F121
:1008F000C7706C0780F01E0761EFFC7980300581BE
:100900009873FC1E00F00003C0F0000F56000007B3
:1009100001E0F83C0F00E007C00F003C00F001FFD1
:10092000FFFF000000FFFFFF000E007801F007C08E
:100930000F00701E0F03C0F008001F1FEE1B03C046
:10094000C0300C060381C0E0300C030000000C0333
:100950000000FE000FFE00F03E07003C380030C1F2
:10096000E0660FD9D861C3C3070F1C1C3C6060F15F
:100970008183C6061B1838EE71E718FDF871E7C0D1
:10098000E00001E00001FFC001FC0003C003C00360
:10099000C007E0066006600E700C300C301C381882
:1009A000181FF83FFC301C300C700E60066006FF0C
:1009B000C7FF3019806C03601B00D80CFFC7FF30E5
:1009C0000D803C01E00F007806FFF7FE0007E03FD6
:1009D000F0E0738066006C0030006000C0018003AE
:1009E00000060006006C00DC031E0E1FF80FC0FF9F
:1009F00083FF8C07300EC01B007C00F003C00F008B
:100A00003C00F003C01F006C03B01CFFE3FF00FFBD
:100A1000FFFFC00C00C00C00C00C00FFEFFEC00CBC
:100A200000C00C00C00C00FFFFFFFFFFFF00600CC8
:100A30000180300600FFDFFB00600C018030060003
:100A4000C0180007F01FFC3C1E70066003E000C0E9
:100A500000C000C07FC07FC003C0036003600730D8
:100A60000F3C1F1FFB07E1C01E00F007803C01E0A8
:100A70000F007803FFFFFFF007803C01E00F0078D4
:100A800003C01E00C0FFFFFFFFF00180C0603018F0
:100A90000C06030180C0603C1E0F07C77F1F00C00B
:100AA0003B01CC0E3070C3831C0CE03380DE03DCD2
:100AB0000E383060C1C3038C06301CC03B0060C0E0
:100AC000300C0300C0300C0300C0300C0300C030F9
:100AD0000C0300FFFFF0E007E007F00FF00FD00F6E
:100AE000D81BD81BD81BCC33CC33CC33C663C663DE
:100AF000C663C3C3C3C3C3C3C183E01F00FC07E015
:100B00003D81EE0F3079C3C61E18F0E7833C1DE02F
:100B10006F01F80FC03E01C003E00FFC0F07860015
:100B2000C60033001B00078003C001E000F000781E
:100B3000003600330018C018783C1FFC03F800FF93
:100B40008FFEC06C03C03C03C03C07FFEFFCC00C31
:100B500000C00C00C00C00C00C0003E00FFC0F072D
:100B60008600C60033001B00078003C001E000F0D0
:100B70000078003600330198C0FC783C1FFF03F971
:100B8000800040FFC3FFCC03B006C01B006C01B067
:100B90000CFFE3FFCC03B006C01B006C01B006C025
:100BA0001B00700FE07FC3839C07600D8006001E52
:100BB000003F803FC00F8007C00F003E00DE0E3FA9
:100BC000F03F80FFFFFF0600600600600600600641
:100BD0000060060060060060060060060060C01E3F
:100BE00000F007803C01E00F007803C01E00F00712
:100BF000803C01E00F80EE0E3FE07C006006C01DEF
:100C0000C031806301C70306060C1C1C301860311C
:100C1000C073006600DC01F001E003C00700E030B3
:100C20001D80E0760781D81E06707C18C1B0E30CE9
:100C3000C38C330C38C6306718C198670661D81D5D
:100C400083603C0D80F03E03C0700F01C0180700A8
:100C5000700E6038E060E1C0C301CC01F801E00330
:100C60008007801F003300E70386060E1C0E700C01
:100C7000C01C6006700E301C38181C380C300E700A
:100C8000066003C003C001800180018001800180F3
:100C9000018001800180FFFFFFC00E00E00E0060B8
:100CA00007007007003003803803801801C01C0063
:100CB000FFFFFFC0FFCCCCCCCCCCCCCCCCCCCFF08D
:100CC0008181020604081810206040818102060418
:100CD000FF3333333333333333333FF00C0E058676
:100CE000C321198C83C180FFFEE38C303F07F8E1FC
:100CF000CC0C00C01C3FCF8CC0CC0CE3C7EF3C70C9
:100D0000C00C00C00C00C00CF8DFCF0EE07C03C0AC
:100D10003C03C03C03E06F0EDFCCF81F0FE71B83E2
:100D2000C0300C0300C038371CFE1F0000600C01EF
:100D30008030063CCFFB8FE0F80F01E03C0780F8E5
:100D40003B8F3F63CC1F07F1C7703C07FFFFFE00DE
:100D5000C01C0DC31FE1F03BD8C67FEC6318C63141
:100D60008C63001E67FDC7F07C0780F01E03C07C0B
:100D70001DC79FB1E600C03E0E7FC7E0C0300C0328
:100D800000C033CDFBC7E0F03C0F03C0F03C0F03C5
:100D9000C0F030F03FFFFFF0330003333333333321
:100DA00033333FE0C0180300600C018330C630CC01
:100DB0001B83F0770C618E30E60CC1D818FFFFFF63
:100DC000FFF0CF1F6FDFFC78FC183C0C1E060F03F2
:100DD000078183C0C1E060F03078183C0C18CF3731
:100DE000EF1F83C0F03C0F03C0F03C0F03C0C01FD7
:100DF00007F1C7707C0780F01E03C07C1DC71FC1B0
:100E0000F0CF8DFCF0EE06C03C03C03C03C03E07B3
:100E1000F0EFFCCF8C00C00C00C0001E67FDC7F0D7
:100E20007C0780F01E03C07C1DC79FF1E600C01840
:100E3000030060CF7F38C30C30C30C30C03E1FEEC0
:100E40001B00C03C07F03E01F03E1DFE3E00631952
:100E5000FFB18C6318C631E7C0F03C0F03C0F03C13
:100E60000F03C0F07E3DFB3CC0E0660660670C30BF
:100E7000C30C3981981981F00F00E00E00C1C1B098
:100E8000E1D870CC2C6636319B18CD98646C163640
:100E90000F1A078F038380C1C060EE18C60CC1F023
:100EA0001C0180781B0330C7306606E06C0D833868
:100EB000630C630E60CC1B03603C0700E01803006A
:100EC000E0780E00FFFFF0180C070381C0603018B7
:100ED0000E03FFFFC019CC6318C631998618C631BE
:100EE0008C631C60FFFFFFFFFFFCC718C6318C63DB
:100EF0000C33318C6318C67300703E09E41F038005
:100F000000000000060001000002120803EF0500C7
:100F100006060801F00A000D100D00F124000B1464
:100F20000D01EF400014111501F06B000E111001BE
:100F3000F0890002060501F08B0005170802EF9A00
:100F40000005170801EFA90007070901EFB0000A23
:100F50000B0E02F6BE0002060702FFC000060208E2
:100F600001F9C20002020602FFC30007120700EFE8
:100F7000D3000B110D01F0EB0005110D03F0F6008D
:100F80000B110D01F00E010B110D01F026010B11DB
:100F90000D01F03E010B110D01F056010B110D0179
:100FA000F06E010B110D01F086010B110D01F09E89
:100FB000010B110D01F0B601020D0602F4BA010297
:100FC000100602F5BE010C0C0E01F5D0010C060E48
:100FD00001F8D9010C0C0E01F5EB010A120D02EF1C
:100FE000020216151801EF3C0210121000EF600209
:100FF0000D121002EF7E020F121101EFA0020E126D
:101000001102EFC0020C120F02EFDB020B120E02F4
:10101000EFF40210121201EF18030D121102EF3655
:101020000302120702EF3B0309120D01EF50030EFA
:10103000121002EF70030A120E02EF87031012144F
:1010400002EFAB030D121202EFC90311121301EFED
:10105000F0030C121002EF0B0411131301EF340410
:101060000E121102EF54040E121001EF74040C1250
:101070000F01EF8F040D121102EFAD040F120F00DC
:10108000EFCF0416121600EF01050F121000EF2328
:101090000510121000EF47050D120F01EF65050452
:1010A000170702EF710507120700EF810504170704
:1010B00001EF8D0509090B01F098050F010F0004E0
:1010C0009A0505040601EF9D050C0D0D01F4B1050F
:1010D0000C120D01EFCC050A0D0C01F4DD050B120D
:1010E0000D01EFF6050B0D0D01F4080605120701C1
:1010F000EF14060B120D01F42D060A120D01EF4438
:101100000602120502EF490604170600EF55060B0A
:10111000120C01EF6E0602120501EF7306110D139A
:1011200001F48F060A0D0D01F4A0060B0D0D01F45C
:10113000B2060C110D01F4CC060B110D01F4E406FE
:10114000060D0801F4EE060A0D0C01F4FF06051069
:101150000701F109070A0D0D01F41A070C0D0C0027
:10116000F42E07110D1100F44A070B0D0B00F45C6F
:10117000070B120B00F475070A0D0C01F486070526
:10118000170801EF950702170602EF9B07051708DE
:1011900002EFAA070A050C01F64F07000F207E1D7B
:1011A000EF0611241FBECFEFDAE0DEBFCDBF11E0A6
:1011B000A0E0B1E0E8ECFBE702C005900D92A63894
:1011C000B107D9F717E0A6E8B1E001C01D92AD3430
:1011D000B107E1F72FD00C94E23D0C9400002DE014
:1011E00088E190E00FB6F894A895809360000FBE58
:1011F000209360000E946A2F0E946D260E94C828DA
:101200000E94A7270E94A713FDD40E94C6110E9426
:10121000C2120E94661C0E9484220E9420230E9407
:1012200048230E94C1310E9457300E94E93C89D076
:101230000C947218EF92FF920F931F93D0DF789463
:101240000E94ED3C882331F48CEA90E00E94FF126A
:101250000E9471250E94B4250E9409320E94F02F3D
:101260000E94CD290E940C13C2D00E94261210D2D7
:101270000E94AD220E94E0180E94C51C0E94A21F7D
:101280000E9479188823E1F20E943C248823C1F649
:101290000E9471237B018C010E94C22EA0E0B0E06D
:1012A000BC01CD012CE330E040E050E00E94F83C6E
:1012B0006E157F058007910718F60E947125C0CF33
:1012C000DA01923049F0933061F09130F9F4EDEBAE
:1012D000F0E022E130E01EC0EFECF0E02EE330E081
:1012E00019C0813049F0813018F0823079F408C09B
:1012F000EDE0F1E0849107C0E1E1F1E0849103C009
:10130000EBE2F1E08491282F30E004C0E0E0F0E06F
:1013100020E030E0ED93FC93C901089580912C0208
:10132000089581E080932C02089510922C02089574
:10133000089584E191E00C943C3C84E191E00C94AC
:10134000153C80E091E00E9424318AE091E00E9407
:1013500024310C94CE380F931F93CF93DF93FC016D
:10136000C081D1810281138105C089916AE071E059
:101370000E942F31C017D10771F08FB7F8948FBF3B
:1013800020910E0130910F01809110019091110177
:101390002817390751F7DF91CF911F910F910895C9
:1013A000CF93DF93EC01FE01449121964423A1F0F9
:1013B0008FB7F8948FBF20910E0130910F0180916B
:1013C0001001909111012817390769F3842F6AE001
:1013D00071E00E942F31E7CFDF91CF910895BBDFFD
:1013E0008BE591E0DDCFDCDF8BE591E0D9CF1F937A
:1013F0008FB7F8948FBF209104013091050180913F
:101400000601909107012817390751F084E191E016
:101410000E946A3B97FD04C060E071E00E942F319A
:101420008FB7F89420910E0130910F018FBF2115D5
:10143000310561F1809115018F708093E9008091F1
:10144000E80080FF23C0C9012031310510F08FE092
:1014500090E0182F19C08FB7F8948FBFE091120158
:10146000F091130180910A0190910B01E80FF91F8F
:1014700084E191E060810E94F03B1150882331F4B7
:101480008AE091E00E946E31112329F784E191E016
:101490000E94D93B0E94563B1F9108950F931F93C2
:1014A000DF93CF9300D000D0CDB7DEB78E010F5FB2
:1014B0001F4FB8010E94D836C8014DDF0F900F9022
:1014C0000F900F90CF91DF911F910F9108950F937F
:1014D0001F93DF93CF9300D000D0CDB7DEB7FC01D0
:1014E00001900020E9F73197E81BF90BE80FF91F8D
:1014F000BF018E010F5F1F4FA8010E941C36C8015B
:101500002ADF0F900F900F900F90CF91DF911F91D6
:101510000F910895E82FF0E0EE0FFF1FE557FE4F03
:1015200025913491C901089591E090932703809308
:101530002803089591E09093320380933303089534
:1015400091E09093300380933103089521E020933C
:101550002903AAE2B3E0FC0186E001900D928150DC
:10156000E1F7089580933503609336035093380371
:1015700040933703089581E080933A03089581E012
:101580008093FE0208951092FE02089590E08091EB
:10159000FC02833009F091E0892F08958091300397
:1015A000882319F480E090E0089590E08091390359
:1015B000873009F091E081E09827892F0895809184
:1015C0003103089520913103213019F481E090E036
:1015D000089580E090E0253011F481E090E00895D6
:1015E0008091330308958091FC0290E0089520E0FB
:1015F0004C9709F421E0822F089580913703909150
:1016000038030895809136030895FC0181E08093AA
:10161000340362817381808191814FE351E00C94A6
:1016200099350F931F938C0182E39BE00E9404295C
:101630008FE080933903C8010E9466291F910F91A2
:10164000089580EA9AE00E943629109230038FE9CB
:1016500091E0E7CF109232038DE792E0E2CF84E889
:1016600092E0DFCF80933903813009F4D9C3089524
:101670000F931F938C0182E39BE00E9404298FE06B
:1016800080933903C8010E9457291F910F91089533
:10169000EF92FF920F931F93DF93CF93CDB7DEB7F7
:1016A000E7970FB6F894DEBF0FBECDBF9091FC0256
:1016B0008091FD029817B1F49330A1F00E943C2470
:1016C0008823D1F48FEF92E00E94D2238823A1F0E7
:1016D0008AE492E094D78091FC020E94382F0E9405
:1016E00071250AC080E596E46FEF72E00E947F23C7
:1016F0008091FC028093FD028091FC028C3009F401
:101700006AC18D3058F5853009F411C1863098F4DE
:10171000823009F46BC0833038F4882309F449C05F
:10172000813009F060C255C0833009F466C084304E
:1017300009F059C26AC0893009F457C18A3038F4B7
:10174000873009F401C1883009F04DC217C18A30D1
:1017500009F453C18B3009F046C281C1873109F4C5
:10176000FAC1883198F4803109F46FC1813138F4BD
:101770008D3009F4F6C08F3009F035C244C1833191
:1017800009F473C1863109F02EC29CC18A3109F473
:101790000AC28B3138F4883109F4F1C1893109F07A
:1017A00022C2FAC18B3109F405C28C3109F01BC287
:1017B0000CC28091FE028823F1F00E94E828882361
:1017C00009F007C288E392E01AD70E94E12885E079
:1017D00001C28DD310D3843009F007C20E94E528DE
:1017E000109231031092330382E0F4C10E94E82882
:1017F000882309F0FAC183E0EDC18091FE028823BD
:1018000009F4F3C11092FC02F0C18091FE0288231A
:1018100009F483C0D7DE882309F41EC18091380102
:10182000882371F110923A038BEB9AE00E944F29C2
:10183000FE01359683E3DF011D928A95E9F782E385
:1018400089831A82FC83EB838E010F5F1F4FC801CF
:101850000E944D3588E592E0B8010E94D63587E3B5
:1018600091E0B8010E94B03582E2B8010E9454357F
:10187000C801FEDE87E391E00E944D3587E1AAC1F1
:101880008CE093E00E94E0308823A1F58CE093E0A7
:101890000E940C317C019093200380931F031092CF
:1018A000210383E391E00E944D3589E99EE00E9487
:1018B0002729FE0135968BE0DF011D928A95E9F715
:1018C0008AE089831A82FC83EB838E010F5F1F4FAE
:1018D000C8010E944D3582E692E0B8010E94D635DB
:1018E000C70161E040E098010E947633C801C0DE84
:1018F00083E170C1A2D2882311F08CE16BC182E236
:1019000093E00E94D223882309F46FC11092290327
:101910008BE692E086DE89E15DC180E086D57CD2EF
:1019200081E08093FC0285E292E069D65EC10E946C
:10193000E828823009F059C186E192E060D681E161
:1019400092E06FDE87E046C180913903873009F06D
:101950004CC1109234038DE08093FC021092090375
:1019600044C180913403882309F43FC186E092E0AA
:1019700046D68CEF91E055DE88E02CC1809139038A
:10198000873009F032C1FE01359681E1DF011D92F9
:101990008A95E9F780E189831A82FC83EB838E01C3
:1019A0000F5F1F4FC8010E944D358FEE91E0B801C7
:1019B0000E94D6350E94222F882311F480E301C0B3
:1019C00081E38E010F5F1F4FB8010E945435C8019B
:1019D0004FDE8CE0FFC080913903873009F005C1EC
:1019E00082EE91E01EDE89E0F5C0809139038730F8
:1019F00021F435DE8AE08093FC0280913903873040
:101A000009F0F3C029C0CADD882309F4EEC0DADD8D
:101A1000882361F086ED91E0F2D588EE93E062E2F2
:101A200073E00E947F2316DE8BE0D4C08091FE021B
:101A3000882309F4CEC080E18093FC0288EC90E01A
:101A400064E073E00E947F23D0C084E093E00E94B2
:101A5000D223882309F4C9C0F4DD8FE0BBC0809194
:101A60003903873009F0C1C0B4C080913903873091
:101A700009F0BBC08CEC91E0C2D5E0901F03F09060
:101A80002003FE0135968BE0DF011D928A95E9F770
:101A90008AE089831A82FC83EB838E010F5F1F4FDC
:101AA000C8010E944D3584E792E0B8010E94D63506
:101AB000C70161E040E098010E947633C801D8DD9B
:101AC00086E188C080913903873009F08EC080910B
:101AD0000B038150823008F07CC0009135011091D9
:101AE0003601C80167E971E00E94B93D081719077E
:101AF00009F06FC08BE391E00E944D3587E391E0E0
:101B00000E944D3587E991E00E947B3DBC0183E353
:101B100091E08E010F5F1F4FA8010E94BD36C801E2
:101B20006BE371E0B4D7882309F453C080913C0182
:101B3000882309F44EC080913801882309F049C0F8
:101B400087E391E00E944D358FE291E067E371E019
:101B50000E94B0353EC080913A03882309F445C005
:101B600080EC91E04CD58BE391E00E945D298BE302
:101B700091E00E944D350E94542988E12BC080914C
:101B80003903873019F487EB91E004C0853069F59B
:101B900088EA91E034D51DC080913903873029F55A
:101BA00059DD8AE117C0809139038730F1F457DDA0
:101BB0008BE110C0809139038730B9F480E797E159
:101BC00062E273E00E947F2304C091D136D1882362
:101BD00021F484E08093FC0208C08091FE028823F7
:101BE00021F41AD102C00E947125E7960FB6F8942D
:101BF000DEBF0FBECDBFCF91DF911F910F91FF9040
:101C0000EF9008950E94262861E045E00E948B2D08
:101C100085E080930A0384E99AE00E942C298AE9EE
:101C20009AE00E94312983E59EE00E943B2985E0ED
:101C30009BE00E94402986EA9AE00E94452982EBB7
:101C40009AE00E944A29A2D38CE093E00E94DB3004
:101C500087E391E00E944D358BE391E00E944D3582
:101C60001092FE021092270310922803109229036B
:101C70001092310310923203109233031092FC023F
:101C800080E596E46FEF72E00E947F2310923003AC
:101C900010923403109235031092360310923803D9
:101CA000109237030895CF93DF93EC018CE093E01B
:101CB0000E94E830882329F4CE016CE073E00E9492
:101CC000F030DF91CF910895DF92EF92FF920F9362
:101CD0001F93DF93CF9300D000D0CDB7DEB78E0136
:101CE0000F5F1F4FB8010E94D83625E0E22E94E026
:101CF000F92ED02E012F8E2D0DDCBC018D2D902FB5
:101D00000E949436882339F48F2D81508F3F21F023
:101D1000EF2CF82EF0CFFE2C8F2D0F900F900F9000
:101D20000F90CF91DF911F910F91FF90EF90DF9077
:101D30000895CF92DF92EF92FF920F931F93CB0102
:101D40007A01690121E020932103BEDF80930B0318
:101D50000FE211E0C8010E944D35C701B8010E9491
:101D6000B03503E311E0C8010E944D35C601B8014A
:101D70000E94B0351F910F91FF90EF90DF90CF90B0
:101D8000089510925C0310926E03089580936F0380
:101D9000E0917003F0917103309709F0099508956F
:101DA0001F93182F80916E03823041F4E0916603F7
:101DB000F0916703309711F080E00995812FE6DFFD
:101DC000143021F41092710310927003DADF1F9126
:101DD000089580937303089581E0809374030895B8
:101DE00080937203089581E080937503089581E0E4
:101DF00080937603089580916F030895009759F0BA
:101E00009093650380936403709367036093660304
:101E100082E080936E03089583E080936E030895BB
:101E200080915C03882311F484E0BACF08958093F5
:101E30006D03813009F4F4CF089580915C03882309
:101E400031F420E030E080916E03882311F021E02E
:101E500030E0822F089580915C0390E008950C9407
:101E6000602908950C945D2908950C946A290895B9
:101E700084E690E06DE573E00E947F238EE080931E
:101E80005C030895FF920F931F938C01F62E87E158
:101E90009FE00E9404298FE080936D03F0925C0321
:101EA000C8010E9466291F910F91FF900895FF922B
:101EB0000F931F938C01F62E87E19FE00E94042967
:101EC0008FE080936D03F0925C03C8010E94572954
:101ED0001F910F91FF90089580EF9EE00E940929C5
:101EE0008EE08093720381E293E06DE0CBCF0F939D
:101EF0001F93DF93CF93CDB7DEB7CB54D0400FB64F
:101F0000F894DEBF0FBECDBFFE01359687E4DF013A
:101F10001D928A95E9F786E489831A82FC83EB8314
:101F200080915C03873009F4E1C0883098F48330F5
:101F300009F473C0843038F4813009F443C082302E
:101F400008F05EC01DC0853009F46CC0863008F012
:101F500074C063C08B3009F4DFC08C3038F4893032
:101F600009F485C08A3008F099C07AC08D3009F430
:101F7000E2C08D3008F4D6C08E3009F0C9C1C0C1AE
:101F800080916F03813021F0843009F0C3C109C012
:101F900080916E03823019F0833009F0BBC1F6DE08
:101FA000B5C100916E03013009F0B4C180E0EEDEEE
:101FB00048DB84EF91E068E673E00E947F230093A2
:101FC0005C03A8C188E693E00E94D223882309F02D
:101FD00094C1E4DA882309F49DC1F4DA882341F03E
:101FE00089EE9EE00E9422298EEA92E062E092C091
:101FF0008FE992E004D383E491E00E944D357DC1E6
:1020000080916D038730A9F480917303882309F0D0
:102010007DC187E992E0F3D270C180916D03873072
:1020200041F474C180917403882309F06FC18091D9
:102030006D03853009F06EC160C188E693E00E94AF
:10204000D223882309F059C180916D03833009F4AC
:10205000BAC0853009F451C1823009F05BC14DC16D
:1020600080917503882309F442C189E014C0E0918E
:102070006403F09165030995882309F44BC10E941C
:1020800054298BE892E0BBD28CED95E068E673E0D2
:102090000E947F238AE080935C033CC190916D0392
:1020A0009A3089F080917603882369F4993069F039
:1020B000953059F0913049F088E693E00E94D223A0
:1020C000882319F427C101E001C000E0E091660314
:1020D000F0916703309731F0802F099510926703D4
:1020E00010926603002309F408C16DC080916D034E
:1020F000873009F0FEC01092750383EF9EE00E94C6
:102100004F291092760387EF9EE00E94182988EBF2
:1021100092E068E0B7DEFEC080916D03882309F08D
:10212000E8C0EBC080916D03853009F4E6C08B30C8
:1021300009F0E1C0EBC0809172038E3009F4D7C082
:102140008A3099F08B3028F4863059F0893091F438
:102150003CC08D3051F08E3009F4D8C08C3051F431
:1021600034C083EC92E06CE0D5CF80916E03833075
:1021700061F5C3C090916E03923009F498C093301A
:1021800009F4A4C0913009F0C5C0843009F45EC0E0
:10219000853050F48130C9F08130A8F08230B9F038
:1021A000833009F0A2C01DC0873069F0883020F468
:1021B000853009F09AC04EC0883009F44BC08B308E
:1021C00009F093C047C081E099C052DEA3C08CEEF5
:1021D0009EE00E940E291092740387ED92E065E064
:1021E00099CF8E010F5F1F4FC8010E944D3587EEBA
:1021F00092E0B8010E94D635C8010E94F02E82E21A
:10220000B8010E9454350E94472F882321F40E9470
:10221000442F8823B9F084EE92E08E010F5F1F4FA8
:10222000B8010E94D635C8010E94EC2E80EE92E0E3
:10223000B8010E94D635C8010E94E82E82E2B8019A
:102240000E945435CE01019663E02FC08EEC92E0DF
:1022500064E060CF8E010F5F1F4FC8010E944D35B3
:1022600087EF92E0B8010E94D63583E491E0B8018F
:102270000E94B03583EF92E0B8010E94D63580917C
:1022800062039091630361E040E098010E9476331D
:1022900081EF92E0B8010E94D6358CED95E068E6BA
:1022A00073E00E947F23C80166E001DE33C0863000
:1022B00018F4813010F506C08830F9F08B30E9F061
:1022C000873099F48BE093E067E024CF863018F4F0
:1022D000813098F406C0883081F08B3071F08730FF
:1022E00021F485E193E06BE015CF4BDD13C08091C5
:1022F0006D03853011F0813069F484E051DD0AC04E
:102300008DE593E00E94D223882321F0E5DD02C011
:102310000E947125C55BDF4F0FB6F894DEBF0FBE7C
:10232000CDBFCF91DF911F910F9108958F929F9212
:10233000AF92BF92CF92DF92EF92FF920F931F93D3
:102340007C016B015A01490103E411E0C8010E94BC
:102350004D35C701B8010E94B035D0926303C092D9
:102360006203C5010E941329909271038092700349
:1023700081E080936E031F910F91FF90EF90DF90AB
:10238000CF90BF90AF909F908F90089583E491E09D
:102390000E944D3510926303109262031092650300
:1023A0001092640310926703109266038FE080938B
:1023B0006D0384E080936F03109271031092700399
:1023C0008EE0809372031092730310927403D9DC31
:1023D00080E19FE00C941D29089580917703089572
:1023E0009093790380937803089590937B0380936F
:1023F0007A0370937D0360937C030895FCDC813045
:1024000019F080E090E0089520E080917A039091A7
:102410007B03892B09F021E081E02827822F089592
:102420000E94162F809377030895109277038823D4
:1024300019F080E00C94282F089591E09093770391
:10244000882319F081E00C94282F08950F931F938F
:10245000DF93CF93CDB7DEB7C154D0400FB6F89419
:10246000DEBF0FBECDBF80917E03823009F460C015
:10247000833030F4882371F0813009F077C053C085
:10248000843009F466C0843008F45EC0853009F0F9
:102490006DC067C0B0DC813021F0843009F066C0C7
:1024A00017C080917703882371F080917A0390910F
:1024B0007B03009709F45AC060917C0370917D03FF
:1024C0009DDC83E002C0A8DC85E080937E034EC0E3
:1024D00080917703882309F449C08FE793E00E9435
:1024E000D223882309F442C0FE0135968DE3DF0133
:1024F0001D928A95E9F78CE389831A82FC83EB832A
:102500008E010F5F1F4FC8010E94E42E0E94B32E60
:10251000BC014091780350917903C8012CEE31E160
:1025200005DF81E0D2CF67DC882301F582E0CDCFE3
:1025300062DC8130C9F08430C9F488EC90E06FE748
:1025400073E00E947F2310C056DC823079F484E06F
:10255000BCCF51DC823051F010927B0310927A0391
:1025600003C049DC843011F410927E03CF5BDF4F4F
:102570000FB6F894DEBF0FBECDBFCF91DF911F9194
:102580000F9108954DDF1092790310927803109205
:102590007B0310927A0310927D0310927C031092B9
:1025A0007E0388EE93E06FE773E00C947F230C9436
:1025B0008E090895CF93DF93EC01F9DF882319F09A
:1025C000CE010E94EF09DF91CF9108950F931F93E1
:1025D000DF93CF9300D000D0CDB7DEB78E010F5F71
:1025E0001F4FB8010E94D836C801E4DF0F900F904A
:1025F0000F900F90CF91DF911F910F910895CF937E
:10260000DF93EC010E948E09882319F0CE010E940D
:10261000F309DF91CF9108950F931F93DF93CF9329
:10262000CDB7DEB7C555D0400FB6F894DEBF0FBEAC
:10263000CDBF8FB7F8948FBF8091040190910501B1
:10264000892B09F441C080E091E00E946E318D3009
:1026500019F08F3749F520C08EE293E00E94D0092F
:102660008FE491E08E010F5F1F4FB8010E94D836B2
:10267000C80163E571E00BD280915401882339F0E1
:1026800083E591E0A3DF83E591E00E944D358FE47F
:1026900091E00E944D350CC08091500181506FE453
:1026A00071E00E946B3504C06FE471E00E94543504
:1026B00081E393E00E94D0098FE491E00E944E0AEA
:1026C00087E491E00E94670A72DF8823A1F18DEA16
:1026D00093E00E94D223882371F1FE01359681E5B3
:1026E000DF011D928A95E9F780E589831A82FC83D0
:1026F000EB838E010F5F1F4FC80114D181E393E07C
:102700000E94D009C8010E944E0A8EE293E00E9406
:10271000D00980915001882341F08FE491E00E941C
:102720004E0A87E491E00E94670A84E690E06DEA31
:1027300073E00E947F23CB5ADF4F0FB6F894DEBFC1
:102740000FBECDBFCF91DF911F910F91089580E013
:1027500090E06DEA73E00C947F23EF92FF920F9369
:102760001F93DF93CF9300D000D0CDB7DEB78C019D
:102770007B010E94683219821A821B821C82C80166
:10278000B701AE014F5F5F4F98010E94EC33698142
:102790007A818B819C810F900F900F900F90CF9139
:1027A000DF911F910F91FF90EF900895BC018CE293
:1027B0000C945435BC018DE70C945435CF92DF92C4
:1027C000EF92FF920F931F938C016B017A0182E2CB
:1027D000BA010E945435C801B7010E94D63581E183
:1027E00094E0B7010E94D635C701F601099582E24F
:1027F000B7010E9454351F910F91FF90EF90DF9029
:10280000CF900895CF92DF92EF92FF920F931F9394
:102810008C016B017A0182E2BA010E945435C80131
:10282000B7010E94D63585E194E0B7010E94D63504
:10283000C60160E0A7010E942C2582E2B7010E9438
:1028400054351F910F91FF90EF90DF90CF90089536
:102850000F931F938C010E944D3589E194E0B801DC
:102860000E94D6351F910F910895CF92DF92EF927B
:10287000FF920F931F938C016B017A0182E2BA01E0
:102880000E945435C801B7010E94D6358BE194E00F
:10289000B7010E94D635C60161E040E097010E9471
:1028A00076331F910F91FF90EF90DF90CF900895B6
:1028B000CF92DF92EF92FF920F931F938C016B01E7
:1028C0007A01CA01C5DFC801B601A701CEDFC70181
:1028D00071DF1F910F91FF90EF90DF90CF900895DF
:1028E000EF92FF920F931F93DF93CF9300D0CDB75A
:1028F000DEB78C017B010E9468321A821982C801FE
:10290000B701AE014F5F5F4F98010E945834898133
:102910009A810F900F90CF91DF911F910F91FF90AF
:10292000EF900895EF92FF920F931F93DF93CF9351
:10293000CDB7DEB727970FB6F894DEBF0FBECDBF79
:102940007C010E944D358E010D5F1F4FC8010E9412
:102950005D23C80160E0A7010E942C258AE394E072
:10296000B7010E94D6350E94F30A62E040E0970169
:102970000E9476330E94F30A0E94F70A882351F0DE
:102980008EE2B7010E94543566DA62E040E09701BA
:102990000E9476338CE2B7010E945435B2D390E0A6
:1029A00061E040E097010E94763385E394E0B7014F
:1029B0000E94D6350E94FD0A61E043E097010E9423
:1029C000763381E394E0B7010E94D6350E94DF0A96
:1029D00090E061E040E097010E9476338DE294E060
:1029E000B7010E94D6350E94F00A90E062E040E014
:1029F00097010E94763389E294E0B7010E94D635B0
:102A00000E94AA2290E061E040E097010E947633A4
:102A100085E294E0B7010E94D6350E94A72290E09B
:102A200061E040E097010E94763381E294E0B701D3
:102A30000E94D635CE010196BE016E5F7F4F0E9487
:102A40003F24898190E061E040E097010E94763365
:102A50008DE2B7010E9454358A8190E061E040E048
:102A600097010E9476330E9448248EE194E0B701DA
:102A70000E94D63527960FB6F894DEBF0FBECDBFA5
:102A8000CF91DF911F910F91FF90EF900895CF921A
:102A9000DF92EF92FF920F931F93DF93CF93CDB707
:102AA000DEB76A970FB6F894DEBF0FBECDBFFC014C
:102AB0007B0181E0898380819181A281B3818A83B6
:102AC0009B83AC83BD8392E0C92ED12CCC0EDD1E3E
:102AD0008E010A5F1F4FC601B8010E94BC34C801B5
:102AE0006AE074E00E9494368823C1F01B8A1A8A37
:102AF0001D8A1C8AC601B8010E94BC34C80167E067
:102B000074E00E949436882331F0C601BE016E5EE7
:102B10007F4F0E94BC34C70105DFCCC2C80163E00F
:102B200074E00E9494368823D9F0C601BE016F5F1D
:102B30007F4FD6DE982F8981882319F0892F0E9434
:102B4000302FCE010296BE016F5F7F4FC9DE982FF6
:102B50008981882309F4AEC2892F0E942C2FAAC232
:102B6000C8016EEF73E00E9494368823A1F1C6017C
:102B70008E010F5F1F4FB801B3DEF82E89818823C5
:102B800009F498C2C601B801E8DD6A877B878C87A3
:102B90009D878981882309F48DC2C601B801DDDDD6
:102BA0006E877F87888B998B8981882309F482C2FD
:102BB0008F2DBE01665F7F4FA9D68E859F85A88920
:102BC000B9890097A105B10509F474C2CE010E962A
:102BD0000E940E266FC2C8016AEF73E00E9494360D
:102BE000882309F4EBC0C601B8010E94BC34C801B7
:102BF00063E373E00E949436882379F0C601BE0136
:102C00006F5F7F4F6DDE982F8981882309F452C250
:102C1000892F90E00E94E02E4DC2C80166E373E068
:102C20000E949436882371F0C601BE016F5F7F4F0A
:102C300057DE9C018981882309F43CC2C9010E94A6
:102C4000D82E38C2C80161E473E00E94943688230C
:102C500071F0C601BE016F5F7F4F42DE982F898100
:102C6000882309F427C2892F0E94402F23C2C8015C
:102C70006BE473E00E949436882371F0C601BE01B4
:102C80006F5F7F4F2DDE9C018981882309F412C27A
:102C9000C9010E94D42E0EC2C80166E573E00E94ED
:102CA0009436882371F0C601BE016F5F7F4F18DE36
:102CB0009C018981882309F4FDC1C9010E94DC2E91
:102CC000F9C1C8016DE573E00E9494369801F02EB9
:102CD000E32E882311F18E010E5F1F4FC801622F72
:102CE000732FA8010E9435358F2D9E2D0E940A2F2B
:102CF000C8016F2D7E2DA8010E9435358F2D9E2D88
:102D00000E94042FC8016F2D7E2DA8010E94353529
:102D10008F2D9E2D0E94FE2ECDC1802F932F61E618
:102D200073E00E949436882379F0CE010296BE01AA
:102D30006F5F7F4FD5DD982F8981882309F4BAC151
:102D4000892F0E94342FB6C1802F9E2D6AE673E032
:102D50000E9494368823D1F08E010E5F1F4FC80168
:102D60006F2D7E2D0E94BC34C801BE016F5F7F4F66
:102D7000B7DD8C018981882309F49CC18F2D9E2D9C
:102D80000E94F82EC8010E94C82E94C1802F9E2D4B
:102D900063E773E00E949436882309F433C1CE01BF
:102DA0000296BE016F5F7F4F9BDD9C018981882366
:102DB00009F480C1C9010E94D02E7CC1C80166EF10
:102DC00073E00E949436882309F4D1C0C601B8018B
:102DD0000E94BC34C8016FE773E00E9494368823D8
:102DE00039F0C70135DD8FE793E064EF7EE264C020
:102DF000C80163E373E00E949436882331F00E9497
:102E0000C52EBC0183E393E08BC0C80166E373E089
:102E10000E949436882331F00E94BF2EBC0186E3C5
:102E200093E07EC0C80161E473E00E949436882379
:102E300049F00E94252F682F772767FD709581E460
:102E400093E06EC0C8016BE473E00E94943688235F
:102E500031F00E94BC2EBC018BE493E061C08E0176
:102E60000A5F1F4FC80166E573E00E94943688230D
:102E700031F00E94C22EBC0186E593E051C0C8012A
:102E80006DE573E00E9494368823C9F0C701E0DC49
:102E90008DE593E060EF7EE2A70190DCC70186DC60
:102EA00081EF93E06CEE7EE2A70188DCC7017EDC57
:102EB0008AEE93E068EE7EE2A70180DCD2C0C80112
:102EC00061E673E00E949436882339F00E94222F35
:102ED000682F81E693E070E023C0C8016AE673E0E2
:102EE0000E949436882381F0C701B2DC82EE93E021
:102EF00064EE7EE2A70162DCC70158DC0E94B32EBB
:102F0000BC018AED93E0ABC0C80163E773E00E94A7
:102F10009436882341F00E94B92EBC0183E793E0E8
:102F2000A701C6DCC7C0C80165ED73E00E949436F6
:102F3000882309F467C0C7018BDC8E010A5E1F4F2E
:102F4000C8010E945D238DEC93E0B801A7015ADC13
:102F5000C7012CDC0E9471236E8B7F8B888F998F29
:102F60001A8E86EC93E0B801A7014CDC7AC0C80148
:102F70006FEB73E00E9494368823C1F0C601B8015C
:102F80000E94BC34C80163E873E00E949436882331
:102F900011F081E008C0C80166E873E00E94943631
:102FA000882381F180E00E943C2F84C0C8016BEB34
:102FB00073E00E949436882339F18E010E5E1F4F14
:102FC000C601B8010E94BC348C899A89891B86305D
:102FD000C8F0C8010E9410368B32A1F4C601BE01B0
:102FE0006A5E7F4F40E050E00E9435358E899F89B0
:102FF000688D798D8617970709F45CC0A7010E9438
:10300000993558C0198256C0C80166E573E00E9420
:103010009436882319F00E9471254CC0C80164EBD6
:1030200073E00E9494368823F9F0C601BE016F5FF9
:103030007F4F56DC8C018981882309F43BC0C7018E
:1030400007DC8DEA93E0B801A7010FDCC701AEDB16
:10305000C8010E94ED2D682F87EA93E070E0A70178
:1030600004DCC701A7DB26C0C8016FE973E00E943A
:1030700094368823D9F082E0C82ED12CCC0EDD1EE8
:10308000C6017E010894E11CF11CB70129DC8C010A
:103090008981882379F0C601B70122DC682F8981F4
:1030A000882341F0C8010E94E42D04C019828AE8F7
:1030B00093E0A5DA89816A960FB6F894DEBF0FBE59
:1030C000CDBFCF91DF911F910F91FF90EF90DF90D7
:1030D000CF900895882311F482E001C081E08093AD
:1030E0006A0408951092690410926804109275049D
:1030F000089590E080916904813009F491E0892F6E
:10310000089580916904089586E990E060E774E08D
:103110000E947F2380E694E072DA88E0809369045D
:10312000089580916804813021F485E080936904DA
:103130000895EACFFF920F931F93CF93DF938C01F3
:10314000C0E0D0E0FF24F3942FC0D8011296ED9197
:10315000FC911397EC0FFD1F80818D3011F08A30A8
:10316000E1F4809150018823F1F0F09275048130F0
:10317000D1F4E0915101F0915201E081EB3519F069
:10318000ED3589F403C0F092680402C0109268041F
:103190008FE491E00E944D3506C0109275046FE4F3
:1031A00071E00E9454352196F801818190E0C817A2
:1031B000D9075CF2DF91CF911F910F91FF90089595
:1031C000AF92BF92CF92DF92EF92FF920F931F9335
:1031D000DF93CF9300D000D00F92CDB7DEB78091B0
:1031E00069048250863050F480E794E00E94D22334
:1031F000882321F08FE494E002DA86DF809169046D
:10320000853009F479C0863098F4823009F451C0D1
:10321000833038F4882309F43DC1813009F03DC181
:103220001AC0833009F452C0843009F036C15BC043
:10323000883009F4C6C0893038F4863009F4A6C055
:10324000873009F02AC1B5C0893009F4CDC08A3071
:1032500009F023C1DBC08BE694E00E94D2238823CF
:1032600009F41BC186E794E00E945D230E94BF0A17
:10327000109275048FE491E00E944D35109268041D
:103280008AE998E1ADD880E0D8D882E080936904DB
:103290000E94BC2E24E630E0AC01429FC001439F57
:1032A000900D529F900D112460E774E00E947F23DF
:1032B000F4C093D8882311F083E0EDC082E390E05E
:1032C00060E774E00E947F238AE0E5C097D88823F6
:1032D00009F4E3C010926A048FE89AE16AE678E1A3
:1032E00084D884E0D8C080916A04813019F082309B
:1032F00009F0D3C085E0CFC080917504882309F41C
:10330000CCC01092750483E591E00E944D35809108
:103310005001882379F18FE491E08E010F5F1F4FF8
:10332000B8010E94D836C80163E571E0B0DB182F00
:103330008FE491E00E944D35809154018823A9F4D7
:10334000809168048130B1F4112319F404E414E08D
:1033500002C00BE414E083E591E00E944D35C80102
:1033600063E571E00E94D63505C08AE063E571E04F
:103370000E9454350E943C24882311F0C5DE8DC084
:10338000809154018823D9F086E085C037D88823FE
:1033900009F483C010926A0483E591E06BE774E05E
:1033A0000E94D8368DE59AE16AE678E11ED887E07A
:1033B00072C080916A048150823008F06EC0B1DE24
:1033C0006CC080E794E00E94D223882309F465C092
:1033D00080E02BD80E94C30A88EE93E060E774E097
:1033E0000E947F2389E057C00E94C60A882339F0D3
:1033F00080E794E00E94D223882309F44EC08AE03B
:10340000809369048FE394E0FAD847C00E940C24AB
:103410000E94B92E7C01CE0101960E945D235701C6
:10342000CC24DD24F694E79400E010E089819A81B1
:10343000AB81BC81E80EF91E0A1F1B1FC801B70132
:10344000A60195010E943E3D2F5F3F4F4F4F5F4FBA
:10345000CA01B901A60195010E94F83C7B018C01CB
:1034600060936B0470936C0480936D0490936E046E
:103470000E94B62EA0E0B0E08E0D9F1DA01FB11FD0
:1034800080936B0490936C04A0936D04B0936E04CE
:1034900010926F0481E0809369040F900F900F9059
:1034A0000F900F90CF91DF911F910F91FF90EF90B0
:1034B000DF90CF90BF90AF9008950F931F93DF934D
:1034C000CF9300D000D0CDB7DEB70E94350F8F3F2D
:1034D000910511F008F08FEF90E06BE774E08E013A
:1034E0000F5F1F4FA8010E94F035C8010E942F0FE7
:1034F00040E020917B0430917C0480917D04909188
:103500007E042817390709F441E0842F0F900F90AB
:103510000F900F90CF91DF911F910F910895CF924F
:10352000DF92EF92FF920F931F93DF93CF93CDB76C
:10353000DEB7E2970FB6F894DEBF0FBECDBF0E9494
:10354000350F889710F480E0A3C0FE013A9689E217
:10355000DF011D928A95E9F788E289831A82FC834C
:10356000EB838E010F5F1F4FC8010E944D358EE522
:1035700094E0B8010E94D6350E94C52E61E040E07B
:1035800098010E94763386E5B8010E9454358AE09E
:1035900090E061E040E098010E94763382E4B80157
:1035A0000E9454350E94FD0A61E040E098010E94AB
:1035B000763382E5B8010E9454350E94DF0A90E01C
:1035C00061E040E098010E94763381E5B8010E94F5
:1035D00054350E94F00A90E061E040E098010E94BA
:1035E00076338DE4B8010E945435B4D7882311F4A2
:1035F00080E301C081E38E010F5F1F4FB8010E947D
:10360000543580E5B8010E945435A1D7882311F4C0
:1036100080E301C081E36E010894C11CD11CB60196
:103620000E94543584E5B6010E9454350E942A3028
:1036300061E040E096010E947633CE0105960E943B
:103640005D23ED80FE800F81188580917604909136
:103650007704A0917804B0917904E81AF90A0A0B6A
:103660001B0B83E4B6010E945435C70161E040E0C2
:1036700096010E9476338BE3B6010E9454358BE5A8
:1036800094E0B6010E94D635C6010E94320F81E057
:10369000E2960FB6F894DEBF0FBECDBFCF91DF919B
:1036A0001F910F91FF90EF90DF90CF900895409180
:1036B000A9044093AA04423009F44EC0433030F4C8
:1036C000442381F0413009F0F1C028C0443009F4AE
:1036D000C4C0443008F49AC0453009F0E7C020E087
:1036E00030E0F2C01092AD041092AC041092AF041E
:1036F0001092AE0480EE91E09093B1048093B004F8
:103700008EE190E09093B3048093B20480EE97E052
:103710009093B5048093B40481E0C6C01092AD04C8
:103720001092AC048EE190E09093AF048093AE04CD
:1037300080EE91E09093B1048093B00482E291E036
:103740009093B3048093B2048FEF9FEF9093B504EE
:103750008093B40482E0A8C08091AB048130D9F09A
:10376000813020F0823009F0A1C032C08AE590E0BB
:103770009093AD048093AC0488E290E09093AF0402
:103780008093AE0488E090E09093B1048093B004FD
:1037900080EF90E014C08AE590E09093AD048093B0
:1037A000AC0480E191E09093AF048093AE048CE28E
:1037B00091E09093B1048093B00488E090E09093FE
:1037C000B3048093B2041092B5041092B4046EC096
:1037D0008EE791E09093AD048093AC0488E290E092
:1037E0009093AF048093AE0488E090E09093B1048E
:1037F0008093B00480EF90E09093B3048093B20480
:103800001092B5041092B40483E04EC082E690E0BA
:103810009093AD048093AC0487E390E09093AF0461
:103820008093AE048CE191E09093B1048093B00456
:103830008091CC049091CD040F979093B304809322
:10384000B2048FEF9FEF9093B5048093B4048091FE
:10385000C204181644F584E027C082E690E09093F5
:10386000AD048093AC042091CC043091CD04285D4C
:103870003F4F3093AF042093AE04285230408CE188
:1038800091E09093B1048093B00488EE90E0821BA5
:10389000930B9093B3048093B2048FE190E09093E4
:1038A000B5048093B40485E08093A9048091A904B1
:1038B000841719F01092AB0405C08091AB048F5FA0
:1038C0008093AB042CEA34E0C90108951092A80457
:1038D0008EEF8093C3041092C8041092C904109212
:1038E000CA041092CB041092CE041092CF0410920E
:1038F000D0041092D1041092D3041092D2041092EA
:10390000D4041092D5041092D6040895FB01482FD8
:1039100085360CF044E64093C20414161CF068EEA1
:1039200070E018C0842F992787FD909524E630E039
:10393000281B390B89ED90E0BC01269FC001279F11
:10394000900D369F900D112464E670E00E94173DA3
:10395000615F7F4F7093CD046093CC04443614F0C4
:1039600084E001C083E08093A9048EEF8093C304B8
:1039700080819181A281B3818093C4049093C50416
:10398000A093C604B093C70408958091A804882327
:10399000B1F41092A9041092AB048FEF8093C2048B
:1039A00088EE90E09093CD048093CC0487E59BE172
:1039B000BCD288EE9CE1BED281E08093A804CAD537
:1039C000882319F00E941F2F02C00E941C2FB7C22B
:1039D0007F928F929F92AF92BF92CF92DF92EF929F
:1039E000FF920F931F93DF93CF93CDB7DEB72A9744
:1039F0000FB6F894DEBF0FBECDBF0E94ED2F782E1C
:103A0000882319F4CC24DD2403C00E942A306C01E1
:103A10000E94020BB82E0E94F00AA82E9BD5982E69
:103A200096D5882ECE01019648D629813A814B81C0
:103A30005C818091CE049091CF04A091D004B0918C
:103A4000D104281739074A075B0709F445C02093BA
:103A5000CE043093CF044093D0045093D10480E43B
:103A600091E09093B7048093B60485E090E0909342
:103A7000B9048093B80487E591E00E944D35E98050
:103A8000FA800B811C8181ECE81688EAF80680E058
:103A9000080780E01807B8F00E94252F992787FDB6
:103AA0009095A92FB92FBC01CD0120E13EE040E067
:103AB00050E00E94F83CE60EF71E081F191FE9822D
:103AC000FA820B831C83CE01019661E047E551E049
:103AD000C3D789E894E052C19091C2048091C30495
:103AE000981709F45BC09093C3048CED90E0909319
:103AF000B7048093B60487E591E00E944D3580912C
:103B0000C20487FD2AC00091CC041091CD04085D49
:103B10001F4F1093B9040093B804085210408F301F
:103B20004CF40E94EC360E94EF360D5D1F4F081BCF
:103B3000110902C00E5C1F4F1093B9040093B80422
:103B40008091C204992787FD909561E040E027E5C8
:103B500031E00E94763385E207C084E990E09093DB
:103B6000B9048093B8048FE367E571E00E9454358F
:103B700087E591E06AEB74E00E94D8368091C20438
:103B80008F301CF48FEF9FEF6BC18FE190E090932B
:103B9000C1048093C0048FEF9FEF2FC1E090C40455
:103BA000F090C5040091C6041091C7048091C80428
:103BB0009091C904A091CA04B091CB04E816F9060B
:103BC0000A071B0709F45DC0E092C804F092C9041B
:103BD0000093CA041093CB04EE82FF8208871987F2
:103BE0000E94252F992787FD9095A92FB92FBC01F9
:103BF000CD0120E13EE040E050E00E94F83CE60EBE
:103C0000F71E081F191FEE82FF82088719871A8680
:103C100088E790E09093B7048093B6040E94EC3656
:103C20000E94EF3620E431E0281B31093093B904BB
:103C30002093B80487E591E00E944D3582E894E036
:103C400067E571E00E94D635CE01069661E047E552
:103C500051E002D78FE794E067E571E00E94D63526
:103C600087E591E06AEB74E00E94D8368FEF9FEF12
:103C70009093C1048093C0041092BF041092BE04BC
:103C8000C0C08091D2049091D304C816D90619F10E
:103C9000D092D304C092D204772009F4E8C01092E5
:103CA000B7041092B60485E090E09093B904809335
:103CB000B80487E591E00E944D358CE794E067E514
:103CC00071E00E94D635C60161E040E027E531E0B1
:103CD0000E94763357C08091D404B81631F1B09267
:103CE000D404BB2009F4C3C08BE490E09093B704E4
:103CF0008093B60485E090E09093B9048093B80473
:103D000087E591E00E944D3589E794E067E571E031
:103D10000E94D6358B2D90E061E040E027E531E050
:103D20000E94763385E794E029C08091D504A816D7
:103D300091F1A092D504AA2009F499C08AEF90E0ED
:103D40009093B7048093B60485E090E09093B90413
:103D50008093B80487E591E00E944D3582E794E0B6
:103D600067E571E00E94D6358A2D90E061E040E081
:103D700027E531E00E9476338EE694E067E571E056
:103D80000E94D63587E591E06AEB74E00E94D83650
:103D900080EE97E06DCF8091D6049816A9F19092AD
:103DA000D6048AEA90E09093B7048093B60485E045
:103DB00090E09093B9048093B80487E591E00E9465
:103DC0004D35992031F08DE467E571E00E9454355E
:103DD00006C08EE694E067E571E00E94D63587E57F
:103DE00091E06AEB74E00E94D83680EE97E0909301
:103DF000C1048093C00480E098EF9093BF04809347
:103E0000BE0426EB34E035C08091D704881679F1E2
:103E10008092D70483EC90E09093B7048093B6042B
:103E200085E090E09093B9048093B80487E591E031
:103E30000E944D35882031F080E567E571E00E94F1
:103E4000543506C08EE694E067E571E00E94D635F1
:103E500087E591E06AEB74E00E94D83680EE97E047
:103E60009093C1048093C0048FE190E0C6CF20E01E
:103E700030E0C9012A960FB6F894DEBF0FBECDBF61
:103E8000CF91DF911F910F91FF90EF90DF90CF9036
:103E9000BF90AF909F908F907F9008958EBD0DB48E
:103EA00007FEFDCF08950AC00DB407FEFDCF9EBDED
:103EB0000DB407FEFDCF8EBD6150704061157105D8
:103EC00099F70DB407FEFDCF0895FC0107C084915A
:103ED0008EBD0DB407FEFDCF319661506623B9F754
:103EE00008959091F7049A3010F02E9A089599232E
:103EF00099F08091F604893058F48091F6048F5F30
:103F00008093F6048091F604891739F42E98089569
:103F10002E9A1092F60408952E9808952F988EBD2B
:103F20000DB407FEFDCF2F9A08959093DF04809380
:103F3000DE0408959093E7048093E6040895809347
:103F4000F70408952F923F924F925F926F927F9263
:103F50008F929F92AF92BF92CF92DF92EF92FF9299
:103F60000F931F93DF93CF93CDB7DEB72D970FB687
:103F7000F894DEBF0FBECDBF8091D804843009F421
:103F8000A1C0853050F48130E9F0813098F0823062
:103F900089F1833009F09FC242C0863009F4ADC078
:103FA000863008F49EC0873009F43BC1883009F0A0
:103FB00092C26EC1889884E190E069ED74E09FD36D
:103FC00081E087C289ED94E0EDD3882309F483C2B0
:103FD000889A1AE1812F8A95F1F70E9464321A9526
:103FE000F1F781E09BDF82E090E069ED74E087D338
:103FF00082E06FC289ED94E0D5D3882309F46BC2C7
:1040000089EB8CDF8FEF4ADF83E848DF87E546DF07
:104010008EE190E069ED74E072D383E05AC289EDDD
:1040200094E0C0D3882309F456C283EB77DF80E89D
:1040300035DF80E033DF86E031DF86E02FDF86EB9F
:104040006DDF85E22BDF80EB69DF88E627DF8CEC14
:1040500065DF85E023DF81EB61DF8CE894E066E0DB
:1040600034DF80EC5BDF82E994E066E02EDF84EBF6
:1040700055DF88E994E067E028DF80EE4FDF8FE9C5
:1040800094E062E222DF8AE349DF85E507DF86E329
:1040900045DF80EC03DF85E341DF80E0FFDE84E481
:1040A0003DDF80E0FBDE82E0F9DE86E337DF80EA99
:1040B000F5DE81E133DF8FE090E069ED74E01FD33E
:1040C00084E007C289ED94E06DD3882309F403C22C
:1040D00089E224DF85E090E069ED74E010D385E0AB
:1040E000F8C189ED94E05ED3882309F4F4C10E94FD
:1040F00066328AE18A95F1F7EBC1E091DE04F09136
:10410000DF04309709F455C009958C01009709F434
:1041100050C00E9464328AE18A95F1F78AE2FEDE9D
:10412000D8018D919C9161E070E0BDDEF801808145
:10413000918124813581820F931F019761E070E0A6
:10414000B2DE8BE2EBDED80112968D919C91139733
:1041500061E070E0A8DEF8018281938126813781D9
:10416000820F931F019761E070E09DDE8CE2D6DE46
:10417000D80118968D919C9119979093E50480939E
:10418000E40416966D917C91179780E090E0149668
:104190002D913C91159740E050E00E94F83C6093CF
:1041A000E0047093E1048093E2049093E30487E0D9
:1041B00090C1E091E604F091E704309709F48BC1D7
:1041C00009958C01009709F486C10E9464328AE146
:1041D0008A95F1F7F801808191819093E9048093A9
:1041E000E804828193819093EB048093EA048481B4
:1041F00095819093ED048093EC0486819781909350
:10420000EF048093EE04808591859093F30480936E
:10421000F204828593859093F5048093F40488E0FA
:1042200058C12091E0043091E1044091E2045091A2
:10423000E3042D32F1E03F07F0E04F07F0E05F07C5
:1042400020F02CE231E040E050E079018091E4047C
:104250009091E504B90127DE00E010E08091E004D0
:104260009091E104A091E204B091E3048E199F09BA
:10427000A00BB10B8093E0049093E104A093E204BF
:10428000B093E3040097A105B10509F024C11EC154
:104290006091F0047091F1046C5F7F4FFB01849199
:1042A00064507040AB014E5F5F4FFA01259134912D
:1042B000A091EC04B091ED04AC91A81B87E0A89FFD
:1042C00060011124C20ED31EFB01259134913A8363
:1042D0002983695F7F4FFB0104916F5F7F4FFB0173
:1042E000F491FB8368507040CB010E94EF36F82EAA
:1042F000F601A590B49022E030E0C20ED31EF60184
:10430000F491FC830894C11CD11CF60154900894CC
:10431000C11CD11CF601F491FD830894C11CD11C71
:10432000F60164900894C11CD11CF60114918AE234
:10433000F5DD8091E8049091E90461E070E0B3DD7F
:10434000FD81CF2EDD248091E8049091E90401974E
:104350008C0D9D1D61E070E0A6DD8BE2DFDD8091BC
:10436000EA049091EB0461E070E09DDD8091EA0445
:104370009091EB0401978F0D911D61E070E093DD4A
:104380008CE2CCDD212E332427FC3094112707FD4D
:104390001095C101801B910B61F08C9DB0018D9D2A
:1043A000700D9C9D700D11248091F4049091F50482
:1043B0007ADD9090F4048090F5042091F2042E832D
:1043C0003091F3043F8300E010E07724EE24452C85
:1043D0005524462D552747FD5095598748879C8180
:1043E000892F90E09B878A87FD80AC81FA1AF618A6
:1043F0003BC016142CF4892D982D6885798553DDE2
:104400001D861C861DC090E087709070892B41F43A
:10441000E981FA81EA0DFB1D0894A11CB11CE4900E
:10442000E7FE03C08E819F8102C0892D982D61E037
:1044300070E039DDEE0CEC85FD853196FD87EC876B
:104440008C85870D2C853D854A855B85241735072E
:10445000D4F25C81750EFF2029F0892D982D6F2DE7
:1044600070E021DD0F5F1F4F041515050CF4C1CF5F
:10447000AB818A2F992787FD90958219930984191A
:10448000950951F08C9DB0018D9D700D9C9D700D16
:104490001124892D982D07DD8091E8049091E9047D
:1044A0008C0D9D1D9093E9048093E8048091EC04A9
:1044B0009091ED0401969093ED048093EC0420918B
:1044C000EE043091EF048217930729F40E946632BC
:1044D00086E08093D8042D960FB6F894DEBF0FBE09
:1044E000CDBFCF91DF911F910F91FF90EF90DF90A3
:1044F000CF90BF90AF909F908F907F906F905F9084
:104500004F903F902F9008952E9A269A889A809ADD
:104510002F9A279A80E190E00E944F321092F60481
:104520008AE08093F70481E79FE1B7D01092DF041F
:104530001092DE041092E7041092E6041092D80460
:104540000E94EC369093F1048093F00408958091DA
:10455000FA0408958091FB040895DF93CF9300D06F
:10456000CDB7DEB780E095E01DD18823F9F085E076
:1045700090E060E075E0C3D08091FC049091FD0470
:10458000089758F01092FA048091FE049091FF046D
:10459000029718F081E08093FA041092FD041092C3
:1045A000FC041092FF041092FE0414C08091FC04DD
:1045B0009091FD0401969093FD048093FC047C99F6
:1045C00009C08091FE049091FF0401969093FF042E
:1045D0008093FE0480910C05813089F0813018F0C1
:1045E000823049F516C085E095E0DCD0882319F1CA
:1045F00082E390E065E075E082D081E007C08AE068
:1046000095E00E941F328823B1F082E080930C0570
:1046100012C0CE0101960E943132882361F01092BF
:10462000FB0489819A81885C914018F081E0809335
:10463000FB0410920C050F900F90CF91DF9108951D
:104640001092FA041092FB041092FD041092FC04E4
:104650001092FF041092FE041092F9041092F804D4
:1046600084988C9A85E063E040E02AE035E00E947F
:10467000CD3185E090E060E075E041D082E390E0EC
:1046800065E075E03CD010920C051092FB04089593
:104690008F9A879A86988E9A089520911E052230C7
:1046A00058F4E22FF0E0EE0FFF1FE15EFA4F918326
:1046B00080832F5F20931E050895FC012FB7F89487
:1046C0008091100590911105A0911205B0911305EC
:1046D00080839183A283B3838091140584832FBF49
:1046E00008958FB7F89420911505309116054091E3
:1046F0001705509118058FBFB901CA010895CF92CF
:10470000DF92EF92FF920F931F93DF93CF9300D02E
:1047100000D00F92CDB7DEB76C017B01CE010196C0
:10472000CCDF09811A812B813C81F7010083118341
:1047300022833383C60164E670E00E942B3D9D8195
:10474000980F9483943650F0945694830F5F1F4FC4
:104750002F4F3F4F0083118322833383C60164E6CA
:1047600070E00E942B3D882777FD8095982FF701F8
:104770002081318142815381260F371F481F591FE5
:1047800020833183428353830F900F900F900F90BB
:104790000F90CF91DF911F910F91FF90EF90DF90DD
:1047A000CF9008950F931F93DF93CF9300D000D045
:1047B0000F92CDB7DEB78C01CE0101967EDF298145
:1047C0003A814B815C81F80180819181A281B38122
:1047D00082179307A407B50718F481E090E012C090
:1047E000281739074A075B0719F080E090E00AC0F4
:1047F00020E030E09D81F8018481981710F021E0DD
:1048000030E0C9010F900F900F900F900F90CF9153
:10481000DF911F910F910895EF92FF920F931F93D5
:104820008FB7F89420911005309111054091120531
:1048300050911305E0901905F0901A0500911B05A1
:1048400010911C052E0D3F1D401F511F2093100578
:1048500030931105409312055093130510921905DA
:1048600010921A0510921B0510921C058FBF1F9104
:104870000F91FF90EF90089580910F050895FC012E
:10488000DB01809124058083809125058C93089518
:104890008FEF80932405109225050895FC01608117
:1048A00071818281938120E831E541E050E00E94EE
:1048B0003E3DCA01B90127E030E040E050E00E94EF
:1048C0003E3D862F0895FC01608171818281938134
:1048D00020E13EE040E050E00E943E3DCA01B901C7
:1048E00028E130E040E050E00E943E3D862F0895F0
:1048F000FC0160817181828193812CE330E040E092
:1049000050E00E943E3DCA01B9012CE330E040E096
:1049100050E00E943E3D862F0895FC016081718128
:10492000828193812CE330E040E050E00E943E3DE4
:10493000862F08951F920F920FB60F9211240F9396
:104940001F932F933F934F935F936F937F938F9317
:104950009F93AF93BF93CF93DF93EF93FF93809198
:104960000D0590910E05019690930E0580930D050F
:10497000809123058F3F29F0809123058F5F8093DD
:10498000230580910D0590910E05C097A8F1109216
:104990000E0510920D05809114058F5F809314050C
:1049A00080911405843640F1109214058091100511
:1049B00090911105A0911205B09113050196A11DCA
:1049C000B11D8093100590931105A0931205B0932B
:1049D00013058091150590911605A0911705B091CA
:1049E00018050196A11DB11D80931505909316051C
:1049F000A0931705B09318050FE115E0C0E0D0E0D3
:104A000006C0D801ED91FD918D0109952196809107
:104A10001E0590E0C817D907A4F3FF91EF91DF912D
:104A2000CF91BF91AF919F918F917F916F915F9146
:104A30004F913F912F911F910F910F900FBE0F90AB
:104A40001F9018951F920F920FB60F9211240F907E
:104A50000FBE0F901F9018950F931F93CF93DF9366
:104A60008C01EA01662369F019DF93E0899FC00198
:104A700011248F539B4F63E0AE010E94B63580E254
:104A800008C00CDF90E061E040E09E010E947633B8
:104A90008CE2BE010E945435C80115DF90E062E04F
:104AA00040E09E010E9476338AE3BE010E945435A5
:104AB000C8011EDF90E062E040E09E010E94763374
:104AC0008AE3BE010E945435C80127DF90E062E00E
:104AD00040E09E010E947633DF91CF911F910F91AC
:104AE0000895DF93CF9300D000D00F92CDB7DEB7FB
:104AF00080910F05882381F581E080930F05CE0119
:104B00000196DBDD69817A818B819C81685F7F4FB3
:104B10008F4F9F4F2091190530911A0540911B0529
:104B200050911C05620F731F841F951F69837A8340
:104B30008B839C830E944D2F87ED94E00E94FF128F
:104B400029E288E190E00FB6F894A8958093600080
:104B50000FBE20936000A8950F900F900F900F90BC
:104B60000F90CF91DF9108956F927F928F929F92D5
:104B7000AF92BF92CF92DF92EF92FF920F931F936B
:104B80008FB7F89490912305109223058FBF8091E1
:104B90002505891718F49093250506C080912405F2
:104BA000981710F49093240580910F05882349F5F8
:104BB000A89597DD3B014C010E94C22E5C010E942A
:104BC000B92EA0E0B0E07C018D01EE0CFF1C001FAF
:104BD000111FE80EF91E0A1F1B1FCC24DD24C6017D
:104BE000B5012CE330E040E050E00E94F83CE60ED6
:104BF000F71E081F191FE614F7040805190508F425
:104C000070DF1F910F91FF90EF90DF90CF90BF90DA
:104C1000AF909F908F907F906F900895EF92FF924A
:104C20000F931F93DF93CF93CDB7DEB769970FB67E
:104C3000F894DEBF0FBECDBFFC016FB7F894209192
:104C40001005309111054091120550911305808196
:104C50009181A281B381821B930BA40BB50B80932E
:104C6000190590931A05A0931B05B0931C056FBFFF
:104C7000FE01359685E1DF011D928A95E9F784E111
:104C800089831A82FC83EB837E010894E11CF11C6A
:104C9000C7010E944D3588EE94E0B7010E94D635D9
:104CA0006091190570911A0580911B0590911C0562
:104CB00041E020E087010E94CE32C7010E94E61247
:104CC00069960FB6F894DEBF0FBECDBFCF91DF91CE
:104CD0001F910F91FF90EF90089510920E05109282
:104CE0000D0510922305D4DD0E944A2F6093100514
:104CF000709311058093120590931305109214057B
:104D000060E070E080E090E00E944D2F1092150569
:104D10001092160510921705109218051092190599
:104D200010921A0510921B0510921C0510920F0587
:104D30008091100590911105A0911205B091130575
:104D400010921D050297A105B10518F481E080932A
:104D50001D0510921E0580919100887F82608093CE
:104D6000910080919100877E88608093910080ED12
:104D700090E0909399008093980010929500109283
:104D80009400C19A809171008260809371000895AF
:104D90009AE0899FF0011124EA5DFA4F81E0808357
:104DA00011820895282F30E0F90153E0EE0FFF1F24
:104DB0005A95E1F7220F331FE20FF31FEA5DFA4F16
:104DC0000084F185E02D2681378184819581281B1F
:104DD000390BC9010895262F9AE0899FF00111240B
:104DE000EA5DFA4F8081882329F060857185822FE2
:104DF0000C942F310895EF92FF920F931F93CF934E
:104E0000DF93DB019AE0899FF0011124EA5DFA4FFC
:104E10008081882389F0E084F184CD91DC91119721
:104E200012960D911C91139704C08991B7010E94AD
:104E30002F31C017D107C9F7DF91CF911F910F9183
:104E4000FF90EF900895EF92FF920F931F93CF93EF
:104E5000DF93F62EE72E9AE0899FF0011124EA5D98
:104E6000FA4F8081882311F100851185862F972FB5
:104E70000E947B3D2FB7F8942FBFF8012681378120
:104E800044815581241B350B2817390778F08F2D65
:104E90009E2DFC01EF01FE0184912196882311F4DF
:104EA00081E005C0B8010E942F31F5CF80E0DF918D
:104EB000CF911F910F91FF90EF900895EF92FF9285
:104EC0001F93DF93CF9300D000D0CDB7DEB7182F5C
:104ED000CB017E010894E11CF11CB7010E94D83679
:104EE000812FB70188DF0F900F900F900F90CF9117
:104EF000DF911F91FF90EF900895CF92DF92EF9294
:104F0000FF920F931F939AE0899F7001112486E20C
:104F100095E0E80EF91E74E0C72ED12CCE0CDF1CF4
:104F2000862F642F41E021E086010E946730C60190
:104F30000E94AA30F7011082808591850E94243159
:104F40001F910F91FF90EF90DF90CF9008951092F6
:104F500026058BE591E090932F0580932E05109206
:104F6000300585E691E0909339058093380582EC11
:104F700097E293CB882319F0CB010C94AA30CB0194
:104F80000C94C1300F931F93CF93DF93C6E2D5E00B
:104F900002E011E088818823B1F189818130D9F064
:104FA000813018F0823079F528C08FB7F8948FBF20
:104FB000E885F98584819581892B29F1BE016C5F93
:104FC0007F4F80E0D7DF888599850E946E318A8384
:104FD0001B83198318C08A81BE016C5F7F4F81706B
:104FE000C9DF8B81883011F409830DC08B818F5FFD
:104FF0008B838A8186958A8306C0BE016C5F7F4F52
:1050000081E0B8DF19822A9685E0CA33D80709F013
:10501000C1CFDF91CF911F910F91089583B190E09F
:1050200024E0969587952A95E1F7817008958091FF
:105030000206882351F41092030680916B00806170
:1050400080936B0081E08093020608958FE691E0E3
:1050500008951F920F920FB60F9211242F933F9332
:105060004F935F936F937F938F939F93AF93BF9370
:10507000EF93FF93D3DF882389F4A99A80916E0080
:10508000826080936E0016BC88E687BD80916B00BD
:105090008F7E80936B0081E080930306FF91EF91F8
:1050A000BF91AF919F918F917F916F915F914F9140
:1050B0003F912F910F900FBE0F901F9018951F9248
:1050C0000F920FB60F9211241F932F933F934F937C
:1050D0005F936F937F938F939F93AF93BF93EF9360
:1050E000FF93109103061230B1F0133051F11130DB
:1050F00009F03CC093DF882341F41092040610931A
:10510000050680ED87BD82E015C080916E008D7F21
:1051100080936E0026C082DF882339F080910406D8
:1051200090910506892B80930406809105068038AE
:1051300021F483E08093030619C0880F809305064D
:1051400015C06CDF882331F0809104066FE671E0B2
:105150000E942F3180916E008D7F80936E0010929F
:10516000030680916B00806180936B00FF91EF914B
:10517000BF91AF919F918F917F916F915F914F916F
:105180003F912F911F910F900FBE0F901F90189578
:105190008FE691E00E94243124982C9A82E084BD0D
:1051A00085BD80ED87BD16BCA99AE8E6F0E0808158
:1051B00081608083109202063ACF819A0895819887
:1051C000089581E08093FF0608951092FF060895E8
:1051D00080910007823051F0833018F4813041F41F
:1051E00009C0833079F0843019F404C082E0089556
:1051F00080E008958091FF06882311F484E00895EB
:1052000081E0089583E008959093100780930F073D
:1052100008959093120780931107089590931407AF
:1052200080931307089590931607809315070895A8
:1052300090931A0780931907089590931C07809301
:105240001B07089590931E0780931D070895909360
:10525000200780931F0708959093220780932107CA
:105260000895909324078093230708959093260729
:105270008093250708959093280780932707089522
:1052800090932A0780932907089590932C07809381
:105290002B07089590932E0780932D0708959093E0
:1052A000300780932F07089580E06AE194CDBC0118
:1052B00080E004DE80E06DE08ECDBC0180E0FECDBC
:1052C000BC0180E098CDBC0180E0BDCDFCDF80E07A
:1052D0006DE081CD80E066CDEF92FF920F931F933A
:1052E000DF93CF9300D00F92CDB7DEB78C017B0157
:1052F000BE016F5F7F4FAE014E5F5F4F98010E940E
:1053000058348981882339F08A81F7018083C80164
:105310000E94223602C0F70110820F900F900F906A
:10532000CF91DF911F910F91FF90EF900895EF9231
:10533000FF920F931F93DF93CF9300D000D0CDB790
:10534000DEB78C017E010894E11CF11CB701A801B5
:105350000E9435356B817C8189819A814DE751E0CE
:105360000E949935C801B701A8010E9435356B81AB
:105370007C8189819A8141E851E00E94993582E0DF
:10538000809309070F900F900F900F90CF91DF91AE
:105390001F910F91FF90EF9008952F923F924F929F
:1053A0005F926F927F928F929F92AF92BF92CF92B5
:1053B000DF92EF92FF920F931F93DF93CF93CDB7BE
:1053C000DEB76F970FB6F894DEBF0FBECDBF8FB7B5
:1053D000F8948FBFE0910107F0910207848040E1CB
:1053E000A42EB12CAC0EBD1E36E0632E712C6C0EBB
:1053F0007D1E6E010894C11CD11C28E0E22EF12C08
:10540000EC0EFD1E9CE0292E312C2C0E3D1E84E15D
:10541000482E512C4C0E5D1E15C3809101079091B2
:1054200002075CD7982E80910907813009F4C2C227
:10543000813020F0823009F002C3D5C28DE0981689
:1054400009F054C280917A01882309F447C300917E
:105450007B0110917C01D8019C919B3209F0B2C173
:1054600089E791E0B7010E94D8368BE26AE3A70191
:10547000910187010E94EA34C1016BED75E04DE0B6
:1054800050E00E94833280930C07863009F413C1E8
:10549000873090F4823009F490C0833030F4882350
:1054A00009F1813009F01AC361C0843009F4B3C036
:1054B000853008F0F6C093C08A3009F430C18B30D3
:1054C00038F4883009F4FEC0893009F007C318C1E8
:1054D0008C3009F460C18C3008F446C18D3009F07D
:1054E000FDC268C1C701F4D7C701B601AE014E5F66
:1054F0005F4F97010E9458348981882309F4EEC2D6
:10550000C7010E9410368C3209F0E8C2C7010E9420
:105510002236C701B601AE014C5F5F4F97010E9472
:1055200058348981882309F4D9C2C7010E941036F2
:105530008C3209F0D3C2C7010E942236C701B601DE
:10554000A30120E030E00E9458348981882309F4C7
:10555000C5C2E0912D07F0912E07309709F4BEC225
:105560004E815F818A816C810995B8C2C701B501FE
:1055700040E050E00E943535C501B201ADDEC50105
:10558000BE016B5E7F4FA8DEC501BE016A5E7F4F24
:10559000A3DEC501BE01695E7F4F9EDEC501BE016F
:1055A000685E7F4F99DEC501BE01675E7F4F94DE66
:1055B000E0912B07F0912C076FC0C70189D7C70175
:1055C000B601A30120E030E00E945834898188238D
:1055D00009F484C2E0912107F0912207D6C0C701E7
:1055E00077D7C701B601A30120E030E00E9458340C
:1055F0008981882309F472C2E0911D07F0911E078A
:10560000309709F46BC220E08E819F81892B09F0CD
:1056100021E0822F69C1C7015BD7C701B601A20192
:1056200097010E94EC338981882351F0C7010E94C1
:1056300010368C3221F4C7010E94223601C0198233
:105640008981882341F0C701B601AE01485E5F4FF2
:1056500097010E94EC338981882351F0C7010E9491
:1056600010368C3221F4C7010E94223601C0198203
:105670008981882349F0C701B601AE01445E5F4FBE
:1056800020E030E00E94EC338981882309F426C2AF
:10569000E0911707F0911807309709F41FC2C20173
:1056A000D1C0C70115D7C701B6014DE057E097013A
:1056B0000E94583404C010920E0710920D07C701C3
:1056C00036DE0CC2C701B501A7010E943535C701FE
:1056D0000E9410368C3209F001C2C7010E942236A6
:1056E000C701B601A30120E030E00E94583489814F
:1056F000882309F4F3C1E0912707F091280745C0FA
:10570000C701B50140E050E00E943535E09129071E
:10571000F0912A07309709F4E1C1C50193C0C70190
:10572000D7D6C701B601A30197010E9458348981D9
:10573000882309F4D3C1C7010E9410368C3209F0C6
:10574000CDC1C7010E942236C701B601A30120E0E6
:1057500030E00E9458348981882309F4BFC1E09168
:105760002507F091260711C0C701B2D6C701B601BF
:10577000A30120E030E00E9458348981882309F495
:10578000ADC1E0912307F0912407309709F4A6C139
:105790008E819F8157C0C7019BD6C70162ED76E01D
:1057A0000E946B36882309F499C1E0911B07F091A0
:1057B0001C07C2C08BEC96E00E94FF12C7010E943A
:1057C000DA128CC1892F80538A3050F4E09113078C
:1057D000F0911407309709F481C189E791E032C054
:1057E0009335E9F4C80163EC76E00E94B93D0817EF
:1057F000190751F589E791E067E070E0A7010E9481
:10580000BD36C7016AE976E04EE050E07CD6E09113
:105810001107F0911207309709F066C05FC1943408
:1058200099F4C80166EB76E00E94B93D08171907A4
:1058300059F4E0911907F0911A07309709F44EC115
:1058400080E090E009954AC189E791E0B7010E94A4
:10585000D836C7016EE775E04EE050E054D680932D
:105860004007863041F1873060F48230C9F08330E0
:1058700018F4813081F519C0833079F0853059F5FD
:1058800017C08930A9F08A3018F4883021F519C082
:105890008D30A1F08E30F9F417C08DE197E002C091
:1058A00080E197E00E94FF1216C089E097E0FACFEE
:1058B00082E097E0F7CF84EF96E0F4CF86EE96E0B3
:1058C000F1CF8FED96E0EECF88ED96E00E94FF12CB
:1058D000C7010E94DA12E0910F07F091100730978C
:1058E00009F4FCC0809140070995F8C0BAE09B1606
:1058F00029F4809108078D3009F4A1C0892D69E74A
:1059000071E00E94543580917A01E82FF0E0E23096
:10591000F1050CF494C000917B0110917C01D80139
:105920008C9111969C918E3361F4903209F087C06E
:10593000E0912F07F0913007309709F4CFC0099517
:10594000CDC08B3209F07BC0993409F078C0E00FEC
:10595000F11F319780818A3309F071C0C80168E274
:1059600077E00E94B93D0817190709F068C089E778
:1059700091E065E070E0A5010E94BD3619821F82AA
:105980001E82C501B601A301950192D789818823A2
:1059900009F455C0C5010E9410368A3309F04FC082
:1059A0008E819F8190930B0780930A0781E08093FB
:1059B000090794C0892D69E771E00E9454358091F0
:1059C0007A0190E020910A0730910B078217930724
:1059D000B0F1E0911507F09116073097E9F089E7EB
:1059E00091E0099519C0BDE09B16E9F480910C0780
:1059F0008550823088F4E0911F07F091200730979E
:105A000059F080910D0790910E076DE771E041E824
:105A100051E029E731E0099589E791E00E944D3591
:105A2000109209070CC0EAE09E1621F48091080745
:105A30008D3029F0892D69E771E00E9454359092EC
:105A400008078A94882009F0E8CC8091000781300B
:105A500059F0813030F0823071F1843009F042C069
:105A60002FC08091FF0630C080914007883039F404
:105A7000A6DB8091FF06882349F082E02CC08630A7
:105A800041F49DDB8091FF06882391F088EC90E043
:105A900009C08D3039F593DB8091FF06882341F0F2
:105AA00080EE9EE263E077E00E947F2384E013C0F3
:105AB0001092000717C08091FF06882399F406C052
:105AC00083E097E00E94D223882361F08FE08093E7
:105AD000400773DB81E08093000704C089E791E011
