:100000000C94DF080C94FB080C94FB080C94FB0880
:100010000C94FB080C94FB080C94FB080C94FB0854
:100020000C94FB080C9461280C945E390C942339D1
:100030000C945A250C94FB080C94FB080C94FB08B8
:100040000C94FB080C94FB080C94FB080C94FB0824
:100050000C94FB080C9497280C94FB080C94FB0858
:100060000C94FB080C94FB080C94FB080C94FB0804
:100070000C94FB080C94FB080C94FB080C94FB08F4
:100080000C94D2240C94FB080C94FB080C94FB08F1
:100090000C94FB080C94FB080C94FB080C94FB08D4
:1000A0000C94FB080C94FB080C94FB0873746163BC
:1000B0006B20636F6C6C6973696F6E2100120110A5
:1000C0000102000008EB034B2001000102DC0109E2
:1000D000023E00020100C0320904000001020201D8
:1000E000000524001001042402060524060001076F
:1000F0000582030800FF09040100020A000000074E
:100100000504021000050705830210000504030919
:100110000418034400650061006E00200043006184
:10012000006D0065007200610000002E034C005558
:10013000004600410020005500530042002D0052AF
:10014000005300320033003200200041006400619F
:1001500000700074006500720000000D0A0000527B
:10016000454320554E524541440052454320524597
:1001700041440053544F20554E53454E5400535460
:100180004F2053454E5400414C4C005E015F016AC4
:100190000173017E018701457865436D643A004132
:1001A000542B435245473F00534D532073656E64B3
:1001B000206572726F7200534D532073656E740028
:1001C00073656E64696E6720534D5300476F7420EA
:1001D000434D47522E0052656769737465726564BA
:1001E0002E0041542B434950484541443D31004184
:1001F000542B4349505153454E443D0041542B43E9
:100200004D47463D310050494E2072656164792E5C
:100210000041544530003E2043656C6C20526561BE
:100220006479203C003E2044697361626C696E67AA
:100230002043656C6C203C003E20456E61626C6919
:100240006E672043656C6C203C0021212054696D51
:10025000656F75742021210041542B434D47533D58
:10026000220041542B434D47523D0041542B434300
:100270004C4B3F0041542B434D47443D0041542BD0
:100280004353510041542B4342430073656E742025
:100290004374726C2D5A006E6F2047505253006E9B
:1002A0006F74207265676973746572656400415488
:1002B0002B43474154543F0041542B43495053452D
:1002C0004E440041542B4349505348555400415427
:1002D0002B43494943520041542B43494653520052
:1002E000222C22002C220041542B435354543D22F3
:1002F000002200222C220041542B434950535441E8
:1003000052543D22544350222C220041542B434945
:100310005041434B0041542B434950434C4F5345AC
:100320000041542B434950535441545553000D0A36
:10033000000D006964007443616C4F6666736574F8
:10034000007574634F666673657400776C6D5469ED
:100350006D656F7574007265626F6F740041504E09
:10036000006369707173656E64006970736572769D
:100370006572006C6F67496E74657276616C006CB3
:100380006F6744656C61790050494E006F6E006F75
:10039000666600756E7265636F676E697A65642064
:1003A000636F6D6D616E6400656577726974650079
:1003B000454556616C00454541646472006565724F
:1003C00065616400736D73006E6F746966790075A2
:1003D0007074696D650043757254696D6500746968
:1003E0006D650044656C617900496E746572766173
:1003F0006C0049505F506F72740049505F416464F3
:10040000720050617373776400557365720067659D
:1004100074007365740064617461006C63640074DB
:100420006F0073746174757300223A2200223A22BD
:10043000007B00223A002020002C543A002C703A15
:10044000002C6D3A002C713A002C723A002C566345
:100450003A002C73743A00646F6E65004552524F37
:10046000520A004F4B0A00574C442074696D656F67
:100470007574005A0A004900706F776572696E677B
:1004800020646F776E0020202000513A0025202044
:1004900000423A00543A002020006173206F662029
:1004A0000020200000151C1C83AA5050013C1E088F
:1004B0000240002A2A0D78020A111D2335414B4BB8
:1004C000423A271B080903020A111D2335414B4BF1
:1004D000423A271B080903000153756E4D6F6E5495
:1004E0007565576564546875467269536174007325
:1004F00068757474696E6720646F776E2E2E2E0097
:100500005461646A3A2000434C4F5345204F4B00DE
:10051000434C4F53454400434F4E4E4543542046B1
:1005200041494C00434F4E4E454354204F4B0043EE
:10053000616C6C205265616479004552524F5200E3
:100540004E4F524D414C20504F57455220444F572B
:100550004E004F4B005244590053454E44204641F3
:10056000494C0053454E44204F4B005348555420AE
:100570004F4B00534D5320526561647900554E44F2
:1005800045522D564F4C5441474520504F574552E8
:1005900020444F574E0007051005170524052F0569
:1005A0003A05400552055505590563056B05730568
:1005B0007D054342430043434C4B004346554E00A8
:1005C00043474154540043495041434B00434D4736
:1005D0004C00434D475200434D475300434D54494F
:1005E000004350494E004352454700435351005089
:1005F000445000B205B605BB05C005C605CD05D201
:1006000005D705DC05E105E605EB05EF05434F4E93
:100610004E454354204F4B00495020434F4E4649CE
:1006200047004950204750525341435400495020FD
:10063000494E495449414C00495020535441525469
:1006400000495020535441545553005044502044C5
:100650004541435400534552564552204C4953544A
:10066000454E494E470054435020434C4F53454458
:100670000054435020434C4F53494E47005443507D
:1006800020434F4E4E454354494E47005544502059
:10069000434C4F5345440055445020434C4F53491D
:1006A0004E470055445020434F4E4E454354494E0B
:1006B00047000D06180622062D06380641064B0691
:1006C0005506660671067D068C069706A30644410C
:1006D0005441204143434550543A005354415445FA
:1006E0003A2000756E7265633A00444541435400F8
:1006F000756E7265633A0052656164792100556ECA
:10070000646572766F6C746167652100506F776500
:1007100072656420446F776E21004661696C656480
:1007200000436C6F73656400436F6E6E6563742085
:100730004641494C00436F6E6E656374204F4B0019
:100740002B4950442C003733353300686F6C6F678A
:1007500072616D0000006C6F6A77617465722E645F
:10076000796E646E732E6F726700FFFFFFF0F0CF3B
:100770003CF38A20063031031818C7FFBFFC310351
:100780001818C7FFBFFC31011818C0C60630040393
:10079000E1FF726C4788F107207E03F017023C47A7
:1007A00088F11B267FC3E0100200000603C0407ED4
:1007B0000C0E7080C3180C3100E73007E6003C4097
:1007C000000C7C008FE019C70118303183021C70C7
:1007D00040FE0407C00F007E039C0C3030C0E701D0
:1007E000F803803E01CC6E19B07CC0F303CE1F9F8E
:1007F000E61E1CFFA0088C663198C6318C63086326
:1008000008610C208218C318C318C6318C62318865
:10081000C4620010235BE38D91000C0300C030FF25
:10082000FFF0C0300C0300C0F560FFF0F0020C10C8
:1008300020C1020C1020C1020C1020C1001F07F1C2
:10084000C7306E0F80F01E03C0780F01E03C0EC170
:100850009C71FC1F0008CFFF8C6318C6318C631895
:100860001F0FF987607C0600C0180701C0F0781CD4
:100870000600803007FFFFE03F0FF387606C0C013C
:1008800080707C0F801801803C0780D873FC1F00AB
:100890000180700E03C0D81B06618C218C33067F4B
:1008A000FFFE0300600C01803FCFF980300600DEC0
:1008B0001FE70E00E00C0180300781F873FC1F0079
:1008C0000F07F9C33074018033C7FEF0DC1F01E06D
:1008D0003C06C1DC71FC1F00FFFFFC010060180238
:1008E00000C03006018030040180300601803000F5
:1008F0001F07F1C730660CC18C61FC3F8E3B01E0E5
:100900003C0780D831FC1F001F07F1C7706C0780BF
:10091000F01E0761EFFC79803005819873FC1E00A2
:10092000F00003C0F0000F5600000701E0F83C0F94
:1009300000E007C00F003C00F001FFFFFF000000D7
:10094000FFFFFF000E007801F007C00F00701E0FC0
:1009500003C0F008001F1FEE1B03C0C0300C0603CD
:1009600081C0E0300C030000000C030000FE000F0B
:10097000FE00F03E07003C380030C1E0660FD9D8D9
:1009800061C3C3070F1C1C3C6060F18183C6061B5A
:100990001838EE71E718FDF871E7C0E00001E000DB
:1009A00001FFC001FC0003C003C003C007E00660F4
:1009B00006600E700C300C301C3818181FF83FFC05
:1009C000301C300C700E60066006FFC7FF301980C7
:1009D0006C03601B00D80CFFC7FF300D803C01E0AA
:1009E0000F007806FFF7FE0007E03FF0E073806637
:1009F000006C0030006000C00180030006000600AB
:100A00006C00DC031E0E1FF80FC0FF83FF8C073045
:100A10000EC01B007C00F003C00F003C00F003C0C0
:100A20001F006C03B01CFFE3FF00FFFFFFC00C00C2
:100A3000C00C00C00C00FFEFFEC00C00C00C00C0DA
:100A40000C00FFFFFFFFFFFF00600C01803006007D
:100A5000FFDFFB00600C0180300600C0180007F0CB
:100A60001FFC3C1E70066003E000C000C000C07F99
:100A7000C07FC003C00360036007300F3C1F1FFB33
:100A800007E1C01E00F007803C01E00F007803FF83
:100A9000FFFFF007803C01E00F007803C01E00C09C
:100AA000FFFFFFFFF00180C06030180C06030180DB
:100AB000C0603C1E0F07C77F1F00C03B01CC0E303B
:100AC00070C3831C0CE03380DE03DC0E383060C161
:100AD000C3038C06301CC03B0060C0300C0300C058
:100AE000300C0300C0300C0300C0300C0300FFFFCB
:100AF000F0E007E007F00FF00FD00FD81BD81BD89D
:100B00001BCC33CC33CC33C663C663C663C3C3C309
:100B1000C3C3C3C183E01F00FC07E03D81EE0F307B
:100B200079C3C61E18F0E7833C1DE06F01F80FC0C3
:100B30003E01C003E00FFC0F078600C60033001B18
:100B400000078003C001E000F000780036003300A9
:100B500018C018783C1FFC03F800FF8FFEC06C0320
:100B6000C03C03C03C07FFEFFCC00C00C00C00C041
:100B70000C00C00C0003E00FFC0F078600C600331A
:100B8000001B00078003C001E000F0007800360081
:100B9000330198C0FC783C1FFF03F9800040FFC37D
:100BA000FFCC03B006C01B006C01B00CFFE3FFCC10
:100BB00003B006C01B006C01B006C01B00700FE044
:100BC0007FC3839C07600D8006001E003F803FC0EE
:100BD0000F8007C00F003E00DE0E3FF03F80FFFF9A
:100BE000FF06006006006006006006006006006008
:100BF000060060060060060060C01E00F007803C32
:100C000001E00F007803C01E00F007803C01E00FF8
:100C100080EE0E3FE07C006006C01DC031806301A5
:100C2000C70306060C1C1C30186031C07300660038
:100C3000DC01F001E003C00700E0301D80E0760732
:100C400081D81E06707C18C1B0E30CC38C330C38FD
:100C5000C6306718C198670661D81D83603C0D8057
:100C6000F03E03C0700F01C0180700700E6038E03E
:100C700060E1C0C301CC01F801E0038007801F00E0
:100C80003300E70386060E1C0E700CC01C60067055
:100C90000E301C38181C380C300E70066003C00370
:100CA000C0018001800180018001800180018001FC
:100CB00080FFFFFFC00E00E00E006007007007001D
:100CC0003003803803801801C01C00FFFFFFC0FF05
:100CD000CCCCCCCCCCCCCCCCCCCFF081810206041B
:100CE0000818102060408181020604FF333333333B
:100CF00033333333333FF00C0E0586C321198C8315
:100D0000C180FFFEE38C303F07F8E1CC0C00C01C33
:100D10003FCF8CC0CC0CE3C7EF3C70C00C00C00CC4
:100D200000C00CF8DFCF0EE07C03C03C03C03C03E6
:100D3000E06F0EDFCCF81F0FE71B83C0300C030001
:100D4000C038371CFE1F0000600C018030063CCF0D
:100D5000FB8FE0F80F01E03C0780F83B8F3F63CC4E
:100D60001F07F1C7703C07FFFFFE00C01C0DC31F2B
:100D7000E1F03BD8C67FEC6318C6318C63001E6778
:100D8000FDC7F07C0780F01E03C07C1DC79FB1E645
:100D900000C03E0E7FC7E0C0300C0300C033CDFB67
:100DA000C7E0F03C0F03C0F03C0F03C0F030F03F51
:100DB000FFFFF0330003333333333333333FE0C0CB
:100DC000180300600C018330C630CC1B83F0770C15
:100DD000618E30E60CC1D818FFFFFFFFF0CF1F6F08
:100DE000DFFC78FC183C0C1E060F03078183C0C192
:100DF000E060F03078183C0C18CF37EF1F83C0F05C
:100E00003C0F03C0F03C0F03C0C01F07F1C7707C4C
:100E10000780F01E03C07C1DC71FC1F0CF8DFCF002
:100E2000EE06C03C03C03C03C03E07F0EFFCCF8C95
:100E300000C00C00C0001E67FDC7F07C0780F01EDC
:100E400003C07C1DC79FF1E600C018030060CF7F80
:100E500038C30C30C30C30C03E1FEE1B00C03C0733
:100E6000F03E01F03E1DFE3E006319FFB18C631899
:100E7000C631E7C0F03C0F03C0F03C0F03C0F07E6A
:100E80003DFB3CC0E0660660670C30C30C398198BE
:100E90001981F00F00E00E00C1C1B0E1D870CC2C78
:100EA0006636319B18CD98646C16360F1A078F037F
:100EB0008380C1C060EE18C60CC1F01C0180781B95
:100EC0000330C7306606E06C0D8338630C630E6038
:100ED000CC1B03603C0700E0180300E0780E00FF25
:100EE000FFF0180C070381C06030180E03FFFFC02D
:100EF00019CC6318C631998618C6318C631C60FF03
:100F0000FFFFFFFFFCC718C6318C630C33318C63C5
:100F100018C67300703E09E41F038000000000063D
:100F20000001000002120803EF050006060801F0A8
:100F30000A000D100D00F124000B140D01EF40000C
:100F400014111501F06B000E111001F0890002065A
:100F50000501F08B0005170802EF9A00051708013C
:100F6000EFA90007070901EFB0000A0B0E02F6BE59
:100F70000002060702FFC00006020801F9C20002D3
:100F8000020602FFC30007120700EFD3000B110D8A
:100F900001F0EB0005110D03F0F6000B110D01F04F
:100FA0000E010B110D01F026010B110D01F03E0198
:100FB0000B110D01F056010B110D01F06E010B111B
:100FC0000D01F086010B110D01F09E010B110D01B9
:100FD000F0B601020D0602F4BA0102100602F5BED7
:100FE000010C0C0E01F5D0010C060E01F8D9010C14
:100FF0000C0E01F5EB010A120D02EF020216151894
:1010000001EF3C0210121000EF60020D121002EF0F
:101010007E020F121101EFA0020E121102EFC002A8
:101020000C120F02EFDB020B120E02EFF402101291
:101030001201EF18030D121102EF3603021207021C
:10104000EF3B0309120D01EF50030E121002EF7077
:10105000030A120E02EF870310121402EFAB030D06
:10106000121202EFC90311121301EFF0030C121058
:1010700002EF0B0411131301EF34040E121102EFEF
:1010800054040E121001EF74040C120F01EF8F04C0
:101090000D121102EFAD040F120F00EFCF04161264
:1010A0001600EF01050F121000EF230510121000BB
:1010B000EF47050D120F01EF650504170702EF71E9
:1010C0000507120700EF810504170701EF8D0509D9
:1010D000090B01F098050F010F00049A050504069D
:1010E00001EF9D050C0D0D01F4B1050C120D01EF82
:1010F000CC050A0D0C01F4DD050B120D01EFF60510
:101100000B0D0D01F4080605120701EF14060B1272
:101110000D01F42D060A120D01EF4406021205021C
:10112000EF490604170600EF55060B120C01EF6E8F
:101130000602120501EF7306110D1301F48F060A62
:101140000D0D01F4A0060B0D0D01F4B2060C110DEE
:1011500001F4CC060B110D01F4E406060D0801F4B0
:10116000EE060A0D0C01F4FF0605100701F1090750
:101170000A0D0D01F41A070C0D0C00F42E07110DC9
:101180001100F44A070B0D0B00F45C070B120B0067
:10119000F475070A0D0C01F4860705170801EF9591
:1011A0000702170602EF9B0705170802EFAA070AB6
:1011B000050C01F66A071B0F207E1DEF06001124A7
:1011C0001FBECFEFDAE0DEBFCDBF11E0A0E0B1E09F
:1011D000E8E3FCE702C005900D92A638B107D9F705
:1011E00017E0A6E8B1E001C01D92AD34B107E1F708
:1011F0002FD00C941A3E0C9400002DE088E190E072
:101200000FB6F894A895809360000FBE20936000FD
:101210000E94A22F0E94A5260E9400290E94DF277B
:101220000E94B513FDD40E94D4110E94D0120E94D6
:101230009E1C0E94BC220E9458230E9480230E9470
:10124000F9310E948F300E94213D89D00C94A91859
:10125000EF92FF920F931F93D0DF78940E94253D69
:10126000882331F48CEA90E00E940D130E94A92596
:101270000E94EC250E9441320E9428300E94052ADB
:101280000E941A13C2D00E94341210D20E94E5228A
:101290000E9417190E94FD1C0E94DA1F0E94B018BC
:1012A0008823E1F20E9474248823C1F60E94A923B6
:1012B0007B018C010E94FA2EA0E0B0E0BC01CD01C0
:1012C0002CE330E040E050E00E94303D6E157F0599
:1012D0008007910718F60E94A925C0CFDA01923045
:1012E00049F0933061F09130F9F4EDEBF0E022E158
:1012F00030E01EC0EFECF0E02EE330E019C08130AA
:1013000049F0813018F0823079F408C0EDE0F1E066
:10131000849107C0E1E1F1E0849103C0EBE2F1E0E8
:101320008491282F30E004C0E0E0F0E020E030E0DD
:10133000ED93FC93C901089580912C02089581E0FA
:1013400080932C02089510922C020895089584E150
:1013500091E00C94743C84E191E00C944D3C80E06D
:1013600091E00E945C318AE091E00E945C310C9433
:1013700006390F931F93CF93DF93FC01C081D18176
:101380000281138105C089916AE071E00E94673192
:10139000C017D10771F08FB7F8948FBF20910E015D
:1013A00030910F0180911001909111012817390798
:1013B00051F7DF91CF911F910F910895CF93DF9354
:1013C000EC01FE01449121964423A1F08FB7F894DB
:1013D0008FBF20910E0130910F01809110019091EB
:1013E00011012817390769F3842F6AE071E00E9420
:1013F0006731E7CFDF91CF910895BBDF8BE591E0B7
:10140000DDCFDCDF8BE591E0D9CF1F938FB7F89468
:101410008FBF2091040130910501809106019091C8
:1014200007012817390751F084E191E00E94A23B9F
:1014300097FD04C060E071E00E9467318FB7F894B7
:1014400020910E0130910F018FBF2115310561F1FF
:10145000809115018F708093E9008091E80080FFF2
:1014600023C0C9012031310510F08FE090E0182F22
:1014700019C08FB7F8948FBFE0911201F09113015A
:1014800080910A0190910B01E80FF91F84E191E02E
:1014900060810E94283C1150882331F48AE091E059
:1014A0000E94A631112329F784E191E00E94113CAA
:1014B0000E948E3B1F9108950F931F93DF93CF934C
:1014C00000D000D0CDB7DEB78E010F5F1F4FB8013F
:1014D0000E941037C8014DDF0F900F900F900F90B2
:1014E000CF91DF911F910F9108950F931F93DF9379
:1014F000CF9300D000D0CDB7DEB7FC010190002023
:10150000E9F73197E81BF90BE80FF91FBF018E01CE
:101510000F5F1F4FA8010E945436C8012ADF0F90A9
:101520000F900F900F90CF91DF911F910F91089521
:10153000E82FF0E0EE0FFF1FE557FE4F25913491A5
:10154000C901089591E0909327038093280308959B
:1015500091E09093320380933303089591E0909348
:10156000300380933103089521E020932903AAE2F8
:10157000B3E0FC0186E001900D928150E1F70895FF
:1015800080933503609336035093380340933703B9
:10159000089581E080933A03089581E08093FE02EC
:1015A00008951092FE02089590E08091FC0283302D
:1015B00009F091E0892F089580913003882319F470
:1015C00080E090E0089590E080913903873009F041
:1015D00091E081E09827892F089580913103089543
:1015E00020913103213019F481E090E0089580E0EA
:1015F00090E0253011F481E090E00895809133036C
:1016000008958091FC0290E0089520E04C9709F441
:1016100021E0822F08958091370390913803089537
:10162000809136030895FC0181E080933403628148
:101630007381808191814FE351E00C94D1350F93F8
:101640001F938C0180E49BE00E943C298FE08093F3
:101650003903C8010E949E291F910F9108958EEAB7
:101660009AE00E946E29109230038FE991E0E7CF53
:10167000109232038DE792E0E2CF84E892E0DFCF70
:1016800080933903813009F4D9C308950F931F93D0
:101690008C0180E49BE00E943C298FE08093390319
:1016A000C8010E948F291F910F910895EF92FF9218
:1016B0000F931F93DF93CF93CDB7DEB7E7970FB6A6
:1016C000F894DEBF0FBECDBF9091FC028091FD0269
:1016D0009817B1F49330A1F00E9474248823D1F4B8
:1016E0008FEF92E00E940A248823A1F08AE492E01E
:1016F00094D78091FC020E94702F0E94A9250AC0F5
:1017000080E596E46FEF72E00E94B7238091FC02BF
:101710008093FD028091FC028C3009F46AC18D3007
:1017200058F5853009F411C1863098F4823009F4F7
:101730006BC0833038F4882309F449C0813009F044
:1017400060C255C0833009F466C0843009F059C2C4
:101750006AC0893009F457C18A3038F4873009F4F7
:1017600001C1883009F04DC217C18A3009F453C154
:101770008B3009F046C281C1873109F4FAC1883142
:1017800098F4803109F46FC1813138F48D3009F457
:10179000F6C08F3009F035C244C1833109F473C1FA
:1017A000863109F02EC29CC18A3109F40AC28B31FC
:1017B00038F4883109F4F1C1893109F022C2FAC143
:1017C0008B3109F405C28C3109F01BC20CC2809127
:1017D000FE028823F1F00E942029882309F007C225
:1017E00088E392E01AD70E94192985E001C28DD3BF
:1017F00010D3843009F007C20E941D2910923103D2
:101800001092330382E0F4C10E942029882309F05A
:10181000FAC183E0EDC18091FE02882309F4F3C18F
:101820001092FC02F0C18091FE02882309F483C06B
:10183000D7DE882309F41EC180913801882371F115
:1018400010923A0389EC9AE00E948729FE013596AE
:1018500083E3DF011D928A95E9F782E389831A8287
:10186000FC83EB838E010F5F1F4FC8010E948535FB
:1018700088E592E0B8010E940E3687E391E0B80156
:101880000E94E83582E2B8010E948C35C801FEDE74
:1018900087E391E00E94853587E1AAC18CE093E05F
:1018A0000E9418318823A1F58CE093E00E94443116
:1018B0007C019093200380931F031092210383E304
:1018C00091E00E94853587EA9EE00E945F29FE0133
:1018D00035968BE0DF011D928A95E9F78AE08983CE
:1018E0001A82FC83EB838E010F5F1F4FC8010E9499
:1018F000853582E692E0B8010E940E36C70161E0AC
:1019000040E098010E94AE33C801C0DE83E170C19F
:10191000A2D2882311F08CE16BC182E293E00E9495
:101920000A24882309F46FC1109229038BE692E000
:1019300086DE89E15DC180E086D57CD281E080933E
:10194000FC0285E292E069D65EC10E9420298230C5
:1019500009F059C186E192E060D681E192E06FDE44
:1019600087E046C180913903873009F04CC110925D
:1019700034038DE08093FC021092090344C18091EE
:101980003403882309F43FC186E092E046D68CEF09
:1019900091E055DE88E02CC180913903873009F051
:1019A00032C1FE01359681E1DF011D928A95E9F78A
:1019B00080E189831A82FC83EB838E010F5F1F4FC6
:1019C000C8010E9485358FEE91E0B8010E940E3665
:1019D0000E945A2F882311F480E301C081E38E0115
:1019E0000F5F1F4FB8010E948C35C8014FDE8CE09D
:1019F000FFC080913903873009F005C182EE91E084
:101A00001EDE89E0F5C080913903873021F435DE90
:101A10008AE08093FC0280913903873009F0F3C09B
:101A200029C0CADD882309F4EEC0DADD882361F01D
:101A300086ED91E0F2D588EE93E062E273E00E94D9
:101A4000B72316DE8BE0D4C08091FE02882309F410
:101A5000CEC080E18093FC0288EC90E064E073E00B
:101A60000E94B723D0C084E093E00E940A24882318
:101A700009F4C9C0F4DD8FE0BBC080913903873021
:101A800009F0C1C0B4C080913903873009F0BBC0F0
:101A90008CEC91E0C2D5E0901F03F0902003FE0192
:101AA00035968BE0DF011D928A95E9F78AE08983FC
:101AB0001A82FC83EB838E010F5F1F4FC8010E94C7
:101AC000853584E792E0B8010E940E36C70161E0D7
:101AD00040E098010E94AE33C801D8DD86E188C09D
:101AE00080913903873009F08EC080910B038150BB
:101AF000823008F07CC00091350110913601C80198
:101B000067E971E00E94F13D0817190709F06FC0FD
:101B10008BE391E00E94853587E391E00E94853553
:101B200087E991E00E94B33DBC0183E391E08E011F
:101B30000F5F1F4FA8010E94F536C8016BE371E0EB
:101B4000B4D7882309F453C080913C01882309F459
:101B50004EC080913801882309F049C087E391E0A5
:101B60000E9485358FE291E067E371E00E94E835DD
:101B70003EC080913A03882309F445C080EC91E08F
:101B80004CD58BE391E00E9495298BE391E00E9474
:101B900085350E948C2988E12BC0809139038730DC
:101BA00019F487EB91E004C0853069F588EA91E08B
:101BB00034D51DC080913903873029F559DD8AE17C
:101BC00017C0809139038730F1F457DD8BE110C0E5
:101BD000809139038730B9F480E797E162E273E0DE
:101BE0000E94B72304C091D136D1882321F484E028
:101BF0008093FC0208C08091FE02882321F41AD150
:101C000002C00E94A925E7960FB6F894DEBF0FBE6A
:101C1000CDBFCF91DF911F910F91FF90EF9008956D
:101C20000E945E2861E045E00E94C32D85E080931C
:101C30000A0382EA9AE00E94642988EA9AE00E94F4
:101C4000692981E69EE00E94732983E19BE00E945E
:101C5000782984EB9AE00E947D2980EC9AE00E942A
:101C60008229A2D38CE093E00E94133187E391E0B4
:101C70000E9485358BE391E00E9485351092FE022B
:101C80001092270310922803109229031092310317
:101C900010923203109233031092FC0280E596E416
:101CA0006FEF72E00E94B72310923003109234035A
:101CB00010923503109236031092380310923703B6
:101CC0000895CF93DF93EC018CE093E00E942031E4
:101CD000882329F4CE016CE073E00E942831DF9163
:101CE000CF910895DF92EF92FF920F931F93DF93AE
:101CF000CF9300D000D0CDB7DEB78E010F5F1F4F5E
:101D0000B8010E94103725E0E22E94E0F92ED02E83
:101D1000012F8E2D0DDCBC018D2D902F0E94CC3615
:101D2000882339F48F2D81508F3F21F0EF2CF82E2E
:101D3000F0CFFE2C8F2D0F900F900F900F90CF9122
:101D4000DF911F910F91FF90EF90DF900895CF9258
:101D5000DF92EF92FF920F931F93CB017A016901FB
:101D600021E020932103BEDF80930B030FE211E0FB
:101D7000C8010E948535C701B8010E94E83503E318
:101D800011E0C8010E948535C601B8010E94E835FE
:101D90001F910F91FF90EF90DF90CF9008951092D8
:101DA0005C0310926E03089580936F03E0917003BB
:101DB000F0917103309709F0099508951F93182F3A
:101DC00080916E03823041F4E0916603F0916703E5
:101DD000309711F080E00995812FE6DF143021F46F
:101DE0001092710310927003DADF1F9108958093AF
:101DF0007303089581E080937403089580937203C0
:101E0000089581E080937503089581E080937603BF
:101E1000089580916F030895009759F0909365039A
:101E200080936403709367036093660382E08093FA
:101E30006E03089583E080936E03089580915C03A0
:101E4000882311F484E0BACF089580936D03813024
:101E500009F4F4CF089580915C03882331F420E0E5
:101E600030E080916E03882311F021E030E0822F72
:101E7000089580915C0390E008950C94982908954A
:101E80000C94952908950C94A229089584E690E075
:101E90006DE573E00E94B7238EE080935C030895A4
:101EA000FF920F931F938C01F62E85E29FE00E9414
:101EB0003C298FE080936D03F0925C03C8010E947F
:101EC0009E291F910F91FF900895FF920F931F93EA
:101ED0008C01F62E85E29FE00E943C298FE08093E2
:101EE0006D03F0925C03C8010E948F291F910F912E
:101EF000FF9008958EEF9EE00E9441298EE080932E
:101F0000720381E293E06DE0CBCF0F931F93DF93D9
:101F1000CF93CDB7DEB7CB54D0400FB6F894DEBF29
:101F20000FBECDBFFE01359687E4DF011D928A9575
:101F3000E9F786E489831A82FC83EB8380915C0352
:101F4000873009F4E1C0883098F4833009F473C015
:101F5000843038F4813009F443C0823008F05EC028
:101F60001DC0853009F46CC0863008F074C063C0B1
:101F70008B3009F4DFC08C3038F4893009F485C027
:101F80008A3008F099C07AC08D3009F4E2C08D30F3
:101F900008F4D6C08E3009F0C9C1C0C180916F036A
:101FA000813021F0843009F0C3C109C080916E03F3
:101FB000823019F0833009F0BBC1F6DEB5C1009163
:101FC0006E03013009F0B4C180E0EEDE48DB84EF3F
:101FD00091E068E673E00E94B72300935C03A8C118
:101FE00088E693E00E940A24882309F094C1E4DA89
:101FF000882309F49DC1F4DA882341F087EF9EE03D
:102000000E945A298EEA92E062E092C08FE992E043
:1020100004D383E491E00E9485357DC180916D03F6
:102020008730A9F480917303882309F07DC187E983
:1020300092E0F3D270C180916D03873041F474C196
:1020400080917403882309F06FC180916D038530FE
:1020500009F06EC160C188E693E00E940A248823DB
:1020600009F059C180916D03833009F4BAC08530FD
:1020700009F451C1823009F05BC14DC180917503F3
:10208000882309F442C189E014C0E0916403F0910F
:1020900065030995882309F44BC10E948C298BE8BC
:1020A00092E0BBD28CED95E068E673E00E94B72326
:1020B0008AE080935C033CC190916D039A3089F073
:1020C00080917603882369F4993069F0953059F04E
:1020D000913049F088E693E00E940A24882319F49D
:1020E00027C101E001C000E0E0916603F0916703C1
:1020F000309731F0802F0995109267031092660394
:10210000002309F408C16DC080916D03873009F088
:10211000FEC01092750381E09FE00E948729109213
:10212000760385E09FE00E94502988EB92E068E00A
:10213000B7DEFEC080916D03882309F0E8C0EBC0D4
:1021400080916D03853009F4E6C08B3009F0E1C061
:10215000EBC0809172038E3009F4D7C08A3099F0B9
:102160008B3028F4863059F0893091F43CC08D30A2
:1021700051F08E3009F4D8C08C3051F434C083EC67
:1021800092E06CE0D5CF80916E03833061F5C3C0DF
:1021900090916E03923009F498C0933009F4A4C072
:1021A000913009F0C5C0843009F45EC0853050F428
:1021B0008130C9F08130A8F08230B9F0833009F065
:1021C000A2C01DC0873069F0883020F4853009F046
:1021D0009AC04EC0883009F44BC08B3009F093C0D0
:1021E00047C081E099C052DEA3C08AEF9EE00E9402
:1021F00046291092740387ED92E065E099CF8E0135
:102200000F5F1F4FC8010E94853587EE92E0B8012D
:102210000E940E36C8010E94282F82E2B8010E9457
:102220008C350E947F2F882321F40E947C2F8823E5
:10223000B9F084EE92E08E010F5F1F4FB8010E944B
:102240000E36C8010E94242F80EE92E0B8010E9451
:102250000E36C8010E94202F82E2B8010E948C3500
:10226000CE01019663E02FC08EEC92E064E060CF77
:102270008E010F5F1F4FC8010E94853587EF92E0E6
:10228000B8010E940E3683E491E0B8010E94E8355F
:1022900083EF92E0B8010E940E3680916203909124
:1022A000630361E040E098010E94AE3381EF92E069
:1022B000B8010E940E368CED95E068E673E00E944E
:1022C000B723C80166E001DE33C0863018F48130E0
:1022D00010F506C08830F9F08B30E9F0873099F4BA
:1022E0008BE093E067E024CF863018F4813098F4D7
:1022F00006C0883081F08B3071F0873021F485E1A1
:1023000093E06BE015CF4BDD13C080916D038530FA
:1023100011F0813069F484E051DD0AC08DE593E06D
:102320000E940A24882321F0E5DD02C00E94A9252D
:10233000C55BDF4F0FB6F894DEBF0FBECDBFCF91A8
:10234000DF911F910F9108958F929F92AF92BF924C
:10235000CF92DF92EF92FF920F931F937C016B015C
:102360005A01490103E411E0C8010E948535C70103
:10237000B8010E94E835D0926303C0926203C501A0
:102380000E944B29909271038092700381E08093A8
:102390006E031F910F91FF90EF90DF90CF90BF9051
:1023A000AF909F908F90089583E491E00E948535CF
:1023B00010926303109262031092650310926403FB
:1023C00010926703109266038FE080936D0384E0A0
:1023D00080936F0310927103109270038EE08093CC
:1023E00072031092730310927403D9DC8EE19FE0A4
:1023F0000C9455290895809177030895909379035B
:1024000080937803089590937B0380937A0370936D
:102410007D0360937C030895FCDC813019F080E03B
:1024200090E0089520E080917A0390917B03892BBE
:1024300009F021E081E02827822F08950E944E2F85
:1024400080937703089510927703882319F080E032
:102450000C94602F089591E090937703882319F0EE
:1024600081E00C94602F08950F931F93DF93CF9317
:10247000CDB7DEB7C154D0400FB6F894DEBF0FBE63
:10248000CDBF80917E03823009F460C0833030F488
:10249000882371F0813009F077C053C0843009F48B
:1024A00066C0843008F45EC0853009F06DC067C036
:1024B000B0DC813021F0843009F066C017C0809113
:1024C0007703882371F080917A0390917B030097C2
:1024D00009F45AC060917C0370917D039DDC83E018
:1024E00002C0A8DC85E080937E034EC08091770314
:1024F000882309F449C08FE793E00E940A248823C7
:1025000009F442C0FE0135968DE3DF011D928A95E4
:10251000E9F78CE389831A82FC83EB838E010F5FDA
:102520001F4FC8010E941C2F0E94EB2EBC0140913E
:10253000780350917903C8012AEF31E105DF81E08A
:10254000D2CF67DC882301F582E0CDCF62DC813019
:10255000C9F08430C9F488EC90E06FE773E00E9422
:10256000B72310C056DC823079F484E0BCCF51DC54
:10257000823051F010927B0310927A0303C049DC41
:10258000843011F410927E03CF5BDF4F0FB6F894C6
:10259000DEBF0FBECDBFCF91DF911F910F91089588
:1025A0004DDF109279031092780310927B03109202
:1025B0007A0310927D0310927C0310927E0388EEC2
:1025C00093E06FE773E00C94B7230C949C09089593
:1025D000CF93DF93EC01F9DF882319F0CE010E943D
:1025E000FD09DF91CF9108950F931F93DF93CF9350
:1025F00000D000D0CDB7DEB78E010F5F1F4FB801FE
:102600000E941037C801E4DF0F900F900F900F90D9
:10261000CF91DF911F910F910895CF93DF93EC013C
:102620000E949C09882319F0CE010E94010ADF91C3
:10263000CF9108950F931F93DF93CF93CDB7DEB75C
:10264000C555D0400FB6F894DEBF0FBECDBF8FB7D3
:10265000F8948FBF8091040190910501892B09F4B2
:1026600041C080E091E00E94A6318D3019F08F3793
:1026700049F520C08EE293E00E94DE098FE491E0EC
:102680008E010F5F1F4FB8010E941037C80163E52C
:1026900071E00BD280915401882339F083E591E0F9
:1026A000A3DF83E591E00E9485358FE491E00E94ED
:1026B00085350CC08091500181506FE471E00E941B
:1026C000A33504C06FE471E00E948C3581E393E090
:1026D0000E94DE098FE491E00E945C0A87E491E0A9
:1026E0000E94750A72DF8823A1F18DEA93E00E94AF
:1026F0000A24882371F1FE01359681E5DF011D92E0
:102700008A95E9F780E589831A82FC83EB838E0141
:102710000F5F1F4FC80114D181E393E00E94DE09CF
:10272000C8010E945C0A8EE293E00E94DE0980915B
:102730005001882341F08FE491E00E945C0A87E415
:1027400091E00E94750A84E690E06DEA73E00E94D1
:10275000B723CB5ADF4F0FB6F894DEBF0FBECDBF05
:10276000CF91DF911F910F91089580E090E06DEA85
:1027700073E00C94B723EF92FF920F931F93DF93B4
:10278000CF9300D000D0CDB7DEB78C017B010E9483
:10279000A03219821A821B821C82C801B701AE01C5
:1027A0004F5F5F4F98010E94243469817A818B8149
:1027B0009C810F900F900F900F90CF91DF911F9100
:1027C0000F91FF90EF900895BC018CE20C948C3532
:1027D000BC018DE70C948C35CF92DF92EF92FF9283
:1027E0000F931F938C016B017A0182E2BA010E9460
:1027F0008C35C801B7010E940E3689E294E0B7011A
:102800000E940E36C701F601099582E2B7010E94C7
:102810008C351F910F91FF90EF90DF90CF9008952E
:10282000CF92DF92EF92FF920F931F938C016B0177
:102830007A0182E2BA010E948C35C801B7010E9478
:102840000E368DE294E0B7010E940E36C60160E0BC
:10285000A7010E94642582E2B7010E948C351F9176
:102860000F91FF90EF90DF90CF9008950F931F93FB
:102870008C010E94853581E394E0B8010E940E36F8
:102880001F910F910895CF92DF92EF92FF920F93D5
:102890001F938C016B017A0182E2BA010E948C3590
:1028A000C801B7010E940E3683E394E0B7010E948D
:1028B0000E36C60161E040E097010E94AE331F91E1
:1028C0000F91FF90EF90DF90CF900895CF92DF921D
:1028D000EF92FF920F931F938C016B017A01CA0153
:1028E000C5DFC801B601A701CEDFC70171DF1F91A7
:1028F0000F91FF90EF90DF90CF900895EF92FF92AD
:102900000F931F93DF93CF9300D0CDB7DEB78C0129
:102910007B010E94A0321A821982C801B701AE0160
:102920004F5F5F4F98010E94903489819A810F9088
:102930000F90CF91DF911F910F91FF90EF9008952D
:10294000EF92FF920F931F93DF93CF93CDB7DEB734
:1029500027970FB6F894DEBF0FBECDBF7C010E9453
:1029600085358E010D5F1F4FC8010E949523C80158
:1029700060E0A7010E94642582E594E0B7010E940F
:102980000E360E94010B62E040E097010E94AE33D8
:102990000E94010B0E94050B882351F08EE2B701C3
:1029A0000E948C3566DA62E040E097010E94AE3307
:1029B0008CE2B7010E948C35DBD390E061E040E00F
:1029C00097010E94AE338DE494E0B7010E940E3669
:1029D0000E940B0B61E043E097010E94AE3389E453
:1029E00094E0B7010E940E360E94ED0A90E061E08B
:1029F00040E097010E94AE3385E494E0B7010E9465
:102A00000E360E94FE0A90E062E040E097010E94CC
:102A1000AE3381E494E0B7010E940E360E94E222B8
:102A200090E061E040E097010E94AE338DE394E0D6
:102A3000B7010E940E360E94DF2290E061E040E084
:102A400097010E94AE3389E394E0B7010E940E36ED
:102A5000CE010196BE016E5F7F4F0E94772489816F
:102A600090E061E040E097010E94AE338DE2B70153
:102A70000E948C358A8190E061E040E097010E94DD
:102A8000AE330E94802486E394E0B7010E940E36A4
:102A900027960FB6F894DEBF0FBECDBFCF91DF9162
:102AA0001F910F91FF90EF900895CF92DF92EF92D8
:102AB000FF920F931F93DF93CF93CDB7DEB76A9743
:102AC0000FB6F894DEBF0FBECDBFFC017B0181E0E5
:102AD000898380819181A281B3818A839B83AC8326
:102AE000BD8392E0C92ED12CCC0EDD1E8E010A5F73
:102AF0001F4FC601B8010E94F434C80162E274E0BD
:102B00000E94CC368823C1F01B8A1A8A1D8A1C8A2F
:102B1000C601B8010E94F434C8016FE174E00E945C
:102B2000CC36882331F0C601BE016E5E7F4F0E9415
:102B3000F434C70105DFF5C2C8016BE174E00E94FF
:102B4000CC368823D9F0C601BE016F5F7F4FD6DE39
:102B5000982F8981882319F0892F0E94682FCE0130
:102B60000296BE016F5F7F4FC9DE982F898188234F
:102B700009F4D7C2892F0E94642FD3C2C80166E12D
:102B800074E00E94CC368823A1F1C6018E010F5F4C
:102B90001F4FB801B3DEF82E8981882309F4C1C222
:102BA000C601B801E8DD6A877B878C879D878981AC
:102BB000882309F4B6C2C601B801DDDD6E877F87C0
:102BC000888B998B8981882309F4ABC28F2DBE0134
:102BD000665F7F4FD3D68E859F85A889B989009778
:102BE000A105B10509F49DC2CE010E960E944626AC
:102BF00098C2C80162E174E00E94CC36882309F4CF
:102C000002C1C601B8010E94F434C80163E373E055
:102C10000E94CC36882379F0C601BE016F5F7F4FDA
:102C20006DDE982F8981882309F47BC2892F90E07B
:102C30000E94182F76C2C80166E373E00E94CC366A
:102C4000882371F0C601BE016F5F7F4F57DE9C0184
:102C50008981882309F465C2C9010E94102F61C2CD
:102C6000C80161E473E00E94CC36882371F0C6018C
:102C7000BE016F5F7F4F42DE982F8981882309F460
:102C800050C2892F0E94782F4CC2C8016BE473E0B8
:102C90000E94CC36882371F0C601BE016F5F7F4F62
:102CA0002DDE9C018981882309F43BC2C9010E9461
:102CB0000C2F37C2C80166E573E00E94CC3688232A
:102CC00071F0C601BE016F5F7F4F18DE9C018981E4
:102CD000882309F426C2C9010E94142F22C2C80108
:102CE0006DE573E00E94CC369801F02EE32E882328
:102CF00011F18E010E5F1F4FC801622F732FA801C3
:102D00000E946D358F2D9E2D0E94422FC8016F2D80
:102D10007E2DA8010E946D358F2D9E2D0E943C2F87
:102D2000C8016F2D7E2DA8010E946D358F2D9E2D1F
:102D30000E94362FF6C1802F932F61E673E00E9428
:102D4000CC36882379F0CE010296BE016F5F7F4FAB
:102D5000D5DD982F8981882309F4E3C1892F0E944A
:102D60006C2FDFC1802F9E2D6AE673E00E94CC3667
:102D70008823D1F08E010E5F1F4FC8016F2D7E2D6D
:102D80000E94F434C801BE016F5F7F4FB7DD8C0134
:102D90008981882309F4C5C18F2D9E2D0E94302F73
:102DA000C8010E94002FBDC1802F9E2D63E773E0F4
:102DB0000E94CC36882379F0CE010296BE016F5F67
:102DC0007F4F9CDD9C018981882309F4AAC1C90138
:102DD0000E94082FA6C1802F9E2D6FE773E00E94EE
:102DE000CC36882309F445C1CE010296BE016F5F3F
:102DF0007F4F84DD9C018981882309F492C1C90138
:102E00000E94042F8EC1C8016EE074E00E94CC368F
:102E1000882309F4E3C0C601B8010E94F434C80154
:102E200068E873E00E94CC36882339F0C7011EDDC4
:102E300088E893E06CE27FE264C0C80163E373E07A
:102E40000E94CC36882331F00E94FD2EBC0183E322
:102E500093E067C0C80166E373E00E94CC36882324
:102E600031F00E94F72EBC0186E393E05AC0C801FE
:102E700061E473E00E94CC36882349F00E945D2F04
:102E8000682F772767FD709581E493E04AC0C801F9
:102E90006BE473E00E94CC36882331F00E94F42E5C
:102EA000BC018BE493E03DC08E010A5F1F4FC80157
:102EB00066E573E00E94CC36882331F00E94FA2E3A
:102EC000BC0186E593E02DC0C8016DE573E00E946A
:102ED000CC368823C9F0C701C9DC8DE593E068E2F0
:102EE0007FE2A70179DCC7016FDC89E094E064E24E
:102EF0007FE2A70171DCC70167DC82E094E060E259
:102F00007FE2A70169DCE4C0C80161E673E00E94CA
:102F1000CC36882349F00E945A2F682F81E693E02F
:102F200070E0A701D3DCFDC0C8016AE673E00E942F
:102F3000CC36882381F0C70199DC8AEF93E06CE1FD
:102F40007FE2A70149DCC7013FDC0E94EB2EBC01F8
:102F500082EF93E0BBC0C80163E773E00E94CC3608
:102F60008823C1F00E94F12EBC0183E793E0A70102
:102F7000ADDCC7017BDC0E94F12EBC0189EE93E041
:102F8000A70181DCC70120DC0E94EE2EBC0183EE8C
:102F900093E09CC0C8016EED73E00E94CC3688239C
:102FA00009F467C0C70162DC8E010A5E1F4FC801C9
:102FB0000E94952386ED93E0B801A70131DCC7019B
:102FC00003DC0E94A9236E8B7F8B888F998F1A8ECA
:102FD0008FEC93E0B801A70123DC7AC0C80168EC4C
:102FE00073E00E94CC368823C1F0C601B8010E946C
:102FF000F434C8016CE873E00E94CC36882311F0E9
:1030000081E008C0C8016FE873E00E94CC368823D5
:1030100081F180E00E94742F84C0C80164EC73E0E9
:103020000E94CC36882339F18E010E5E1F4FC601F7
:10303000B8010E94F4348C899A89891B8630C8F0C3
:10304000C8010E9448368B32A1F4C601BE016A5EF7
:103050007F4F40E050E00E946D358E899F89688DDA
:10306000798D8617970709F45CC0A7010E94D135B6
:1030700058C0198256C0C80166E573E00E94CC367C
:10308000882319F00E94A9254CC0C8016DEB73E09C
:103090000E94CC368823F9F0C601BE016F5F7F4FD6
:1030A0002DDC8C018981882309F43BC0C701DEDB5C
:1030B00086EB93E0B801A701E6DBC70185DBC80119
:1030C0000E94252E682F80EB93E070E0A701DBDBE8
:1030D000C7017EDB26C0C80168EA73E00E94CC36D7
:1030E0008823D9F082E0C82ED12CCC0EDD1EC6017B
:1030F0007E010894E11CF11CB70100DC8C01898180
:10310000882379F0C601B701F9DB682F898188230C
:1031100041F0C8010E941C2E04C0198283E993E08B
:103120007CDA89816A960FB6F894DEBF0FBECDBFF8
:10313000CF91DF911F910F91FF90EF90DF90CF9093
:103140000895882311F482E001C081E080936A042D
:1031500008951092690410926804109275040895FD
:1031600090E080916904813009F491E0892F0895FD
:1031700080916904089586E990E060E774E00E9418
:10318000B72388E794E049DA88E0809369040895DA
:1031900080916804813021F485E08093690408956A
:1031A000EACFFF920F931F93CF93DF938C01C0E080
:1031B000D0E0FF24F3942FC0D8011296ED91FC913A
:1031C0001397EC0FFD1F80818D3011F08A30E1F4F0
:1031D000809150018823F1F0F09275048130D1F490
:1031E000E0915101F0915201E081EB3519F0ED359C
:1031F00089F403C0F092680402C0109268048FE45E
:1032000091E00E94853506C0109275046FE471E06C
:103210000E948C352196F801818190E0C817D9076A
:103220005CF2DF91CF911F910F91FF900895AF92C3
:10323000BF92CF92DF92EF92FF920F931F93DF9393
:10324000CF9300D000D00F92CDB7DEB78091690444
:103250008250863050F480E794E00E940A2488234C
:1032600021F087E694E0D9D986DF80916904853022
:1032700009F479C0863098F4823009F451C0833063
:1032800038F4882309F43EC1813009F03EC11AC0E8
:10329000833009F452C0843009F037C15BC08830F4
:1032A00009F4C7C0893038F4863009F4A6C08730E5
:1032B00009F02BC1B6C0893009F4CEC08A3009F0BC
:1032C00024C1DCC08BE694E00E940A24882309F420
:1032D0001CC186E794E00E9495230E94CD0A1092BB
:1032E00075048FE491E00E9485351092680481EDA9
:1032F00098E184D880E0AFD882E0809369040E948E
:10330000F42E24E630E0AC01429FC001439F900DB3
:10331000529F900D112460E774E00E94B723F5C01E
:103320006AD8882311F083E0EEC082E390E060E782
:1033300074E00E94B7238AE0E6C06ED8882309F4BF
:10334000E4C010926A0487EC9AE161EA78E15BD804
:1033500084E0D9C080916A04813019F0823009F08C
:10336000D4C085E0D0C080917504882309F4CDC015
:103370001092750483E591E00E948535809150019B
:10338000882379F18FE491E08E010F5F1F4FB80120
:103390000E941037C80163E571E087DB182F8FE4C6
:1033A00091E00E948535809154018823A9F4809191
:1033B00068048130B1F4112319F40CE514E002C063
:1033C00003E614E083E591E00E948535C80163E5DA
:1033D00071E00E940E3605C08AE063E571E00E944C
:1033E0008C350E947424882311F0C5DE8EC0809134
:1033F00054018823E1F086E086C00ED8882309F4C2
:1034000084C010926A0483E591E06BE774E00E9447
:10341000103785E99AE161EA78E10E94031287E0BA
:1034200072C080916A048150823008F06EC0B0DEB4
:103430006CC080E794E00E940A24882309F465C0E8
:1034400080E001D80E94D10A88EE93E060E774E042
:103450000E94B72389E057C00E94D40A882339F01C
:1034600080E794E00E940A24882309F44EC08AE091
:103470008093690487E594E0D0D847C00E94442433
:103480000E94F12E7C01CE0101960E9495235701E6
:10349000CC24DD24F694E79400E010E089819A8141
:1034A000AB81BC81E80EF91E0A1F1B1FC801B701C2
:1034B000A60195010E94763D2F5F3F4F4F4F5F4F12
:1034C000CA01B901A60195010E94303D7B018C0122
:1034D00060936B0470936C0480936D0490936E04FE
:1034E0000E94EE2EA0E0B0E08E0D9F1DA01FB11F28
:1034F00080936B0490936C04A0936D04B0936E045E
:1035000010926F0481E0809369040F900F900F90E8
:103510000F900F90CF91DF911F910F91FF90EF903F
:10352000DF90CF90BF90AF9008950F931F93DF93DC
:10353000CF9300D000D0CDB7DEB70E94430F8F3FAE
:10354000910511F008F08FEF90E06BE774E08E01C9
:103550000F5F1F4FA8010E942836C8010E943D0F2F
:1035600040E020917B0430917C0480917D04909117
:103570007E042817390709F441E0842F0F900F903B
:103580000F900F90CF91DF911F910F910895CF92DF
:10359000DF92EF92FF920F931F93DF93CF93CDB7FC
:1035A000DEB7E2970FB6F894DEBF0FBECDBF0E9424
:1035B000430F889710F480E0A3C0FE013A9689E299
:1035C000DF011D928A95E9F788E289831A82FC83DC
:1035D000EB838E010F5F1F4FC8010E94853586E780
:1035E00094E0B8010E940E360E94FD2E61E040E09A
:1035F00098010E94AE3386E5B8010E948C358AE0BE
:1036000090E061E040E098010E94AE3382E4B801AE
:103610000E948C350E940B0B61E040E098010E94F3
:10362000AE3382E5B8010E948C350E94ED0A90E02D
:1036300061E040E098010E94AE3381E5B8010E944C
:103640008C350E94FE0A90E061E040E098010E9403
:10365000AE338DE4B8010E948C35B4D7882311F4C1
:1036600080E301C081E38E010F5F1F4FB8010E940C
:103670008C3580E5B8010E948C35A1D7882311F4E0
:1036800080E301C081E36E010894C11CD11CB60126
:103690000E948C3584E5B6010E948C350E94623010
:1036A00061E040E096010E94AE33CE0105960E9493
:1036B0009523ED80FE800F8118858091760490918E
:1036C0007704A0917804B0917904E81AF90A0A0BFA
:1036D0001B0B83E4B6010E948C35C70161E040E01A
:1036E00096010E94AE338BE3B6010E948C3583E7CE
:1036F00094E0B6010E940E36C6010E94400F81E0A0
:10370000E2960FB6F894DEBF0FBECDBFCF91DF912A
:103710001F910F91FF90EF90DF90CF90089540910F
:10372000A9044093AA04423009F44EC0433030F457
:10373000442381F0413009F0F1C028C0443009F43D
:10374000C4C0443008F49AC0453009F0E7C020E016
:1037500030E0F2C01092AD041092AC041092AF04AD
:103760001092AE0480EE91E09093B1048093B00487
:103770008EE190E09093B3048093B20480EE97E0E2
:103780009093B5048093B40481E0C6C01092AD0458
:103790001092AC048EE190E09093AF048093AE045D
:1037A00080EE91E09093B1048093B00482E291E0C6
:1037B0009093B3048093B2048FEF9FEF9093B5047E
:1037C0008093B40482E0A8C08091AB048130D9F02A
:1037D000813020F0823009F0A1C032C08AE590E04B
:1037E0009093AD048093AC0488E290E09093AF0492
:1037F0008093AE0488E090E09093B1048093B0048D
:1038000080EF90E014C08AE590E09093AD0480933F
:10381000AC0480E191E09093AF048093AE048CE21D
:1038200091E09093B1048093B00488E090E090938D
:10383000B3048093B2041092B5041092B4046EC025
:103840008EE791E09093AD048093AC0488E290E021
:103850009093AF048093AE0488E090E09093B1041D
:103860008093B00480EF90E09093B3048093B2040F
:103870001092B5041092B40483E04EC082E690E04A
:103880009093AD048093AC0487E390E09093AF04F1
:103890008093AE048CE191E09093B1048093B004E6
:1038A0008091CC049091CD040F979093B3048093B2
:1038B000B2048FEF9FEF9093B5048093B40480918E
:1038C000C204181644F584E027C082E690E0909385
:1038D000AD048093AC042091CC043091CD04285DDC
:1038E0003F4F3093AF042093AE04285230408CE118
:1038F00091E09093B1048093B00488EE90E0821B35
:10390000930B9093B3048093B2048FE190E0909373
:10391000B5048093B40485E08093A9048091A90440
:10392000841719F01092AB0405C08091AB048F5F2F
:103930008093AB042CEA34E0C90108951092A804E6
:103940008EEF8093C3041092C8041092C9041092A1
:10395000CA041092CB041092CE041092CF0410929D
:10396000D0041092D1041092D3041092D204109279
:10397000D4041092D5041092D6040895FB01482F68
:1039800085360CF044E64093C20414161CF068EE31
:1039900070E018C0842F992787FD909524E630E0C9
:1039A000281B390B89ED90E0BC01269FC001279FA1
:1039B000900D369F900D112464E670E00E944F3DFB
:1039C000615F7F4F7093CD046093CC04443614F054
:1039D00084E001C083E08093A9048EEF8093C30448
:1039E00080819181A281B3818093C4049093C504A6
:1039F000A093C604B093C70408958091A8048823B7
:103A0000B1F41092A9041092AB048FEF8093C2041A
:103A100088EE90E09093CD048093CC048FE89BE1F6
:103A2000BCD280E29DE1BED281E08093A804CAD5D9
:103A3000882319F00E94572F02C00E94542FB7C24A
:103A40007F928F929F92AF92BF92CF92DF92EF922E
:103A5000FF920F931F93DF93CF93CDB7DEB72A97D3
:103A60000FB6F894DEBF0FBECDBF0E942530782E72
:103A7000882319F4CC24DD2403C00E9462306C0139
:103A80000E94100BB82E0E94FE0AA82E9BD5982EDD
:103A900096D5882ECE01019648D629813A814B8150
:103AA0005C818091CE049091CF04A091D004B0911C
:103AB000D104281739074A075B0709F445C020934A
:103AC000CE043093CF044093D0045093D10480E4CB
:103AD00091E09093B7048093B60485E090E09093D2
:103AE000B9048093B80487E591E00E948535E980A8
:103AF000FA800B811C8181ECE81688EAF80680E0E8
:103B0000080780E01807B8F00E945D2F992787FD0D
:103B10009095A92FB92FBC01CD0120E13EE040E0F6
:103B200050E00E94303DE60EF71E081F191FE98283
:103B3000FA820B831C83CE01019661E047E551E0D8
:103B4000C3D781EA94E052C19091C2048091C3042A
:103B5000981709F45BC09093C3048CED90E09093A8
:103B6000B7048093B60487E591E00E948535809183
:103B7000C20487FD2AC00091CC041091CD04085DD9
:103B80001F4F1093B9040093B804085210408F30AF
:103B90004CF40E9424370E9427370D5D1F4F081BED
:103BA000110902C00E5C1F4F1093B9040093B804B2
:103BB0008091C204992787FD909561E040E027E558
:103BC00031E00E94AE3385E207C084E990E0909333
:103BD000B9048093B8048FE367E571E00E948C35E7
:103BE00087E591E06AEB74E00E9410378091C2048F
:103BF0008F301CF48FEF9FEF6BC18FE190E09093BB
:103C0000C1048093C0048FEF9FEF2FC1E090C404E4
:103C1000F090C5040091C6041091C7048091C804B7
:103C20009091C904A091CA04B091CB04E816F9069A
:103C30000A071B0709F45DC0E092C804F092C904AA
:103C40000093CA041093CB04EE82FF820887198781
:103C50000E945D2F992787FD9095A92FB92FBC0150
:103C6000CD0120E13EE040E050E00E94303DE60E14
:103C7000F71E081F191FEE82FF82088719871A8610
:103C800088E790E09093B7048093B6040E942437AD
:103C90000E94273720E431E0281B31093093B90412
:103CA0002093B80487E591E00E9485358AE994E085
:103CB00067E571E00E940E36CE01069661E047E5A9
:103CC00051E002D787E994E067E571E00E940E3683
:103CD00087E591E06AEB74E00E9410378FEF9FEF69
:103CE0009093C1048093C0041092BF041092BE044C
:103CF000C0C08091D2049091D304C816D90619F19E
:103D0000D092D304C092D204772009F4E8C0109274
:103D1000B7041092B60485E090E09093B9048093C4
:103D2000B80487E591E00E94853584E994E067E571
:103D300071E00E940E36C60161E040E027E531E007
:103D40000E94AE3357C08091D404B81631F1B092BE
:103D5000D404BB2009F4C3C08BE490E09093B70473
:103D60008093B60485E090E09093B9048093B80402
:103D700087E591E00E94853581E994E067E571E08F
:103D80000E940E368B2D90E061E040E027E531E0A7
:103D90000E94AE338DE894E029C08091D504A81626
:103DA00091F1A092D504AA2009F499C08AEF90E07D
:103DB0009093B7048093B60485E090E09093B904A3
:103DC0008093B80487E591E00E9485358AE894E005
:103DD00067E571E00E940E368A2D90E061E040E0D8
:103DE00027E531E00E94AE3386E894E067E571E0B4
:103DF0000E940E3687E591E06AEB74E00E9410376E
:103E000080EE97E06DCF8091D6049816A9F190923C
:103E1000D6048AEA90E09093B7048093B60485E0D4
:103E200090E09093B9048093B80487E591E00E94F4
:103E30008535992031F08DE467E571E00E948C357D
:103E400006C086E894E067E571E00E940E3687E5DB
:103E500091E06AEB74E00E94103780EE97E0909357
:103E6000C1048093C00480E098EF9093BF048093D6
:103E7000BE0426EB34E035C08091D704881679F172
:103E80008092D70483EC90E09093B7048093B604BB
:103E900085E090E09093B9048093B80487E591E0C1
:103EA0000E948535882031F080E567E571E00E9449
:103EB0008C3506C086E894E067E571E00E940E3616
:103EC00087E591E06AEB74E00E94103780EE97E09E
:103ED0009093C1048093C0048FE190E0C6CF20E0AE
:103EE00030E0C9012A960FB6F894DEBF0FBECDBFF1
:103EF000CF91DF911F910F91FF90EF90DF90CF90C6
:103F0000BF90AF909F908F907F9008958EBD0DB41D
:103F100007FEFDCF08950AC00DB407FEFDCF9EBD7C
:103F20000DB407FEFDCF8EBD615070406115710567
:103F300099F70DB407FEFDCF0895FC0107C08491E9
:103F40008EBD0DB407FEFDCF319661506623B9F7E3
:103F500008959091F7049A3010F02E9A08959923BD
:103F600099F08091F604893058F48091F6048F5FBF
:103F70008093F6048091F604891739F42E980895F9
:103F80002E9A1092F60408952E9808952F988EBDBB
:103F90000DB407FEFDCF2F9A08959093DF04809310
:103FA000DE0408959093E7048093E60408958093D7
:103FB000F70408952F923F924F925F926F927F92F3
:103FC0008F929F92AF92BF92CF92DF92EF92FF9229
:103FD0000F931F93DF93CF93CDB7DEB72D970FB617
:103FE000F894DEBF0FBECDBF8091D804843009F4B1
:103FF000A1C0853050F48130E9F0813098F08230F2
:1040000089F1833009F09FC242C0863009F4ADC007
:10401000863008F49EC0873009F43BC1883009F02F
:1040200092C26EC1889884E190E069ED74E09FD3FC
:1040300081E087C289ED94E0EDD3882309F483C23F
:10404000889A1AE1812F8A95F1F70E949C321A957D
:10405000F1F781E09BDF82E090E069ED74E087D3C7
:1040600082E06FC289ED94E0D5D3882309F46BC256
:1040700089EB8CDF8FEF4ADF83E848DF87E546DF97
:104080008EE190E069ED74E072D383E05AC289ED6D
:1040900094E0C0D3882309F456C283EB77DF80E82D
:1040A00035DF80E033DF86E031DF86E02FDF86EB2F
:1040B0006DDF85E22BDF80EB69DF88E627DF8CECA4
:1040C00065DF85E023DF81EB61DF84EA94E066E071
:1040D00034DF80EC5BDF8AEA94E066E02EDF84EB7D
:1040E00055DF80EB94E067E028DF80EE4FDF87EB61
:1040F00094E062E222DF8AE349DF85E507DF86E3B9
:1041000045DF80EC03DF85E341DF80E0FFDE84E410
:104110003DDF80E0FBDE82E0F9DE86E337DF80EA28
:10412000F5DE81E133DF8FE090E069ED74E01FD3CD
:1041300084E007C289ED94E06DD3882309F403C2BB
:1041400089E224DF85E090E069ED74E010D385E03A
:10415000F8C189ED94E05ED3882309F4F4C10E948C
:104160009E328AE18A95F1F7EBC1E091DE04F0918D
:10417000DF04309709F455C009958C01009709F4C4
:1041800050C00E949C328AE18A95F1F78AE2FEDEF5
:10419000D8018D919C9161E070E0BDDEF8018081D5
:1041A000918124813581820F931F019761E070E036
:1041B000B2DE8BE2EBDED80112968D919C911397C3
:1041C00061E070E0A8DEF801828193812681378169
:1041D000820F931F019761E070E09DDE8CE2D6DED6
:1041E000D80118968D919C9119979093E50480932E
:1041F000E40416966D917C91179780E090E01496F8
:104200002D913C91159740E050E00E94303D609325
:10421000E0047093E1048093E2049093E30487E068
:1042200090C1E091E604F091E704309709F48BC166
:1042300009958C01009709F486C10E949C328AE19D
:104240008A95F1F7F801808191819093E904809338
:10425000E804828193819093EB048093EA04848143
:1042600095819093ED048093EC04868197819093DF
:10427000EF048093EE04808591859093F3048093FE
:10428000F204828593859093F5048093F40488E08A
:1042900058C12091E0043091E1044091E204509132
:1042A000E3042D32F1E03F07F0E04F07F0E05F0755
:1042B00020F02CE231E040E050E079018091E4040C
:1042C0009091E504B90127DE00E010E08091E00460
:1042D0009091E104A091E204B091E3048E199F094A
:1042E000A00BB10B8093E0049093E104A093E2044F
:1042F000B093E3040097A105B10509F024C11EC1E4
:104300006091F0047091F1046C5F7F4FFB01849128
:1043100064507040AB014E5F5F4FFA0125913491BC
:10432000A091EC04B091ED04AC91A81B87E0A89F8C
:1043300060011124C20ED31EFB01259134913A83F2
:104340002983695F7F4FFB0104916F5F7F4FFB0102
:10435000F491FB8368507040CB010E942737F82E00
:10436000F601A590B49022E030E0C20ED31EF60113
:10437000F491FC830894C11CD11CF601549008945C
:10438000C11CD11CF601F491FD830894C11CD11C01
:10439000F60164900894C11CD11CF60114918AE2C4
:1043A000F5DD8091E8049091E90461E070E0B3DD0F
:1043B000FD81CF2EDD248091E8049091E9040197DE
:1043C0008C0D9D1D61E070E0A6DD8BE2DFDD80914C
:1043D000EA049091EB0461E070E09DDD8091EA04D5
:1043E0009091EB0401978F0D911D61E070E093DDDA
:1043F0008CE2CCDD212E332427FC3094112707FDDD
:104400001095C101801B910B61F08C9DB0018D9DB9
:10441000700D9C9D700D11248091F4049091F50411
:104420007ADD9090F4048090F5042091F2042E83BC
:104430003091F3043F8300E010E07724EE24452C14
:104440005524462D552747FD5095598748879C810F
:10445000892F90E09B878A87FD80AC81FA1AF61835
:104460003BC016142CF4892D982D6885798553DD71
:104470001D861C861DC090E087709070892B41F4CA
:10448000E981FA81EA0DFB1D0894A11CB11CE4909E
:10449000E7FE03C08E819F8102C0892D982D61E0C7
:1044A00070E039DDEE0CEC85FD853196FD87EC87FB
:1044B0008C85870D2C853D854A855B8524173507BE
:1044C000D4F25C81750EFF2029F0892D982D6F2D77
:1044D00070E021DD0F5F1F4F041515050CF4C1CFEF
:1044E000AB818A2F992787FD9095821993098419AA
:1044F000950951F08C9DB0018D9D700D9C9D700DA6
:104500001124892D982D07DD8091E8049091E9040C
:104510008C0D9D1D9093E9048093E8048091EC0438
:104520009091ED0401969093ED048093EC0420911A
:10453000EE043091EF048217930729F40E949E3213
:1045400086E08093D8042D960FB6F894DEBF0FBE98
:10455000CDBFCF91DF911F910F91FF90EF90DF9032
:10456000CF90BF90AF909F908F907F906F905F9013
:104570004F903F902F9008952E9A269A889A809A6D
:104580002F9A279A80E190E00E9487321092F604D9
:104590008AE08093F70489EA9FE1B7D01092DF04A4
:1045A0001092DE041092E7041092E6041092D804F0
:1045B0000E9424379093F1048093F0040895809131
:1045C000FA0408958091FB040895DF93CF9300D0FF
:1045D000CDB7DEB780E095E01DD18823F9F085E006
:1045E00090E060E075E0C3D08091FC049091FD0400
:1045F000089758F01092FA048091FE049091FF04FD
:10460000029718F081E08093FA041092FD04109252
:10461000FC041092FF041092FE0414C08091FC046C
:104620009091FD0401969093FD048093FC047C9985
:1046300009C08091FE049091FF0401969093FF04BD
:104640008093FE0480910C05813089F0813018F050
:10465000823049F516C085E095E0DCD0882319F159
:1046600082E390E065E075E082D081E007C08AE0F7
:1046700095E00E9457328823B1F082E080930C05C8
:1046800012C0CE0101960E946932882361F0109217
:10469000FB0489819A81845C914018F081E08093C9
:1046A000FB0410920C050F900F90CF91DF910895AD
:1046B0001092FA041092FB041092FD041092FC0474
:1046C0001092FF041092FE041092F9041092F80464
:1046D00084988C9A85E063E040E02AE035E00E940F
:1046E000053285E090E060E075E041D082E390E043
:1046F00065E075E03CD010920C051092FB04089523
:104700008F9A879A86988E9A089520911E05223056
:1047100058F4E22FF0E0EE0FFF1FE15EFA4F9183B5
:1047200080832F5F20931E050895FC012FB7F89416
:104730008091100590911105A0911205B09113057B
:1047400080839183A283B3838091140584832FBFD8
:1047500008958FB7F8942091150530911605409172
:104760001705509118058FBFB901CA010895CF925E
:10477000DF92EF92FF920F931F93DF93CF9300D0BE
:1047800000D00F92CDB7DEB76C017B01CE01019650
:10479000CCDF09811A812B813C81F70100831183D1
:1047A00022833383C60164E670E00E94633D9D81ED
:1047B000980F9483943650F0945694830F5F1F4F54
:1047C0002F4F3F4F0083118322833383C60164E65A
:1047D00070E00E94633D882777FD8095982FF70150
:1047E0002081318142815381260F371F481F591F75
:1047F00020833183428353830F900F900F900F904B
:104800000F90CF91DF911F910F91FF90EF90DF906C
:10481000CF9008950F931F93DF93CF9300D000D0D4
:104820000F92CDB7DEB78C01CE0101967EDF2981D4
:104830003A814B815C81F80180819181A281B381B1
:1048400082179307A407B50718F481E090E012C01F
:10485000281739074A075B0719F080E090E00AC083
:1048600020E030E09D81F8018481981710F021E06C
:1048700030E0C9010F900F900F900F900F90CF91E3
:10488000DF911F910F910895EF92FF920F931F9365
:104890008FB7F894209110053091110540911205C1
:1048A00050911305E0901905F0901A0500911B0531
:1048B00010911C052E0D3F1D401F511F2093100508
:1048C000309311054093120550931305109219056A
:1048D00010921A0510921B0510921C058FBF1F9194
:1048E0000F91FF90EF90089580910F050895FC01BE
:1048F000DB01809124058083809125058C930895A8
:104900008FEF80932405109225050895FC016081A6
:1049100071818281938120E831E541E050E00E947D
:10492000763DCA01B90127E030E040E050E00E9446
:10493000763D862F0895FC0160817181828193818B
:1049400020E13EE040E050E00E94763DCA01B9011E
:1049500028E130E040E050E00E94763D862F089547
:10496000FC0160817181828193812CE330E040E021
:1049700050E00E94763DCA01B9012CE330E040E0EE
:1049800050E00E94763D862F0895FC016081718180
:10499000828193812CE330E040E050E00E94763D3C
:1049A000862F08951F920F920FB60F9211240F9326
:1049B0001F932F933F934F935F936F937F938F93A7
:1049C0009F93AF93BF93CF93DF93EF93FF93809128
:1049D0000D0590910E05019690930E0580930D059F
:1049E000809123058F3F29F0809123058F5F80936D
:1049F000230580910D0590910E05C097A8F11092A6
:104A00000E0510920D05809114058F5F809314059B
:104A100080911405843640F11092140580911005A0
:104A200090911105A0911205B09113050196A11D59
:104A3000B11D8093100590931105A0931205B093BA
:104A400013058091150590911605A0911705B09159
:104A500018050196A11DB11D8093150590931605AB
:104A6000A0931705B09318050FE115E0C0E0D0E062
:104A700006C0D801ED91FD918D0109952196809197
:104A80001E0590E0C817D907A4F3FF91EF91DF91BD
:104A9000CF91BF91AF919F918F917F916F915F91D6
:104AA0004F913F912F911F910F910F900FBE0F903B
:104AB0001F9018951F920F920FB60F9211240F900E
:104AC0000FBE0F901F9018950F931F93CF93DF93F6
:104AD0008C01EA01662369F019DF93E0899FC00128
:104AE000112487529B4F63E0AE010E94EE3580E2B5
:104AF00008C00CDF90E061E040E09E010E94AE3310
:104B00008CE2BE010E948C35C80115DF90E062E0A6
:104B100040E09E010E94AE338AE3BE010E948C35C4
:104B2000C8011EDF90E062E040E09E010E94AE33CB
:104B30008AE3BE010E948C35C80127DF90E062E065
:104B400040E09E010E94AE33DF91CF911F910F9103
:104B50000895DF93CF9300D000D00F92CDB7DEB78A
:104B600080910F05882381F581E080930F05CE01A8
:104B70000196DBDD69817A818B819C81685F7F4F43
:104B80008F4F9F4F2091190530911A0540911B05B9
:104B900050911C05620F731F841F951F69837A83D0
:104BA0008B839C830E94852F8FEE94E00E940D13CF
:104BB00029E288E190E00FB6F894A8958093600010
:104BC0000FBE20936000A8950F900F900F900F904C
:104BD0000F90CF91DF9108956F927F928F929F9265
:104BE000AF92BF92CF92DF92EF92FF920F931F93FB
:104BF0008FB7F89490912305109223058FBF809171
:104C00002505891718F49093250506C08091240581
:104C1000981710F49093240580910F05882349F587
:104C2000A89597DD3B014C010E94FA2E5C010E9481
:104C3000F12EA0E0B0E07C018D01EE0CFF1C001F06
:104C4000111FE80EF91E0A1F1B1FCC24DD24C6010C
:104C5000B5012CE330E040E050E00E94303DE60E2C
:104C6000F71E081F191FE614F7040805190508F4B4
:104C700070DF1F910F91FF90EF90DF90CF90BF906A
:104C8000AF909F908F907F906F900895EF92FF92DA
:104C90000F931F93DF93CF93CDB7DEB769970FB60E
:104CA000F894DEBF0FBECDBFFC016FB7F894209122
:104CB0001005309111054091120550911305808126
:104CC0009181A281B381821B930BA40BB50B8093BE
:104CD000190590931A05A0931B05B0931C056FBF8F
:104CE000FE01359685E1DF011D928A95E9F784E1A1
:104CF00089831A82FC83EB837E010894E11CF11CFA
:104D0000C7010E94853580E095E0B7010E940E360C
:104D10006091190570911A0580911B0590911C05F1
:104D200041E020E087010E940633C7010E94F4128F
:104D300069960FB6F894DEBF0FBECDBFCF91DF915D
:104D40001F910F91FF90EF90089510920E05109211
:104D50000D0510922305D4DD0E94822F609310056B
:104D6000709311058093120590931305109214050A
:104D700060E070E080E090E00E94852F10921505C1
:104D80001092160510921705109218051092190529
:104D900010921A0510921B0510921C0510920F0517
:104DA0008091100590911105A0911205B091130505
:104DB00010921D050297A105B10518F481E08093BA
:104DC0001D0510921E0580919100887F826080935E
:104DD000910080919100877E88608093910080EDA2
:104DE00090E0909399008093980010929500109213
:104DF0009400C19A8091710082608093710008953F
:104E00009AE0899FF0011124EA5DFA4F81E08083E6
:104E100011820895282F30E0F90153E0EE0FFF1FB3
:104E20005A95E1F7220F331FE20FF31FEA5DFA4FA5
:104E30000084F185E02D2681378184819581281BAE
:104E4000390BC9010895262F9AE0899FF00111249A
:104E5000EA5DFA4F8081882329F060857185822F71
:104E60000C9467310895EF92FF920F931F93CF93A5
:104E7000DF93DB019AE0899FF0011124EA5DFA4F8C
:104E80008081882389F0E084F184CD91DC911197B1
:104E900012960D911C91139704C08991B7010E943D
:104EA0006731C017D107C9F7DF91CF911F910F91DB
:104EB000FF90EF900895EF92FF920F931F93CF937F
:104EC000DF93F62EE72E9AE0899FF0011124EA5D28
:104ED000FA4F8081882311F100851185862F972F45
:104EE0000E94B33D2FB7F8942FBFF8012681378178
:104EF00044815581241B350B2817390778F08F2DF5
:104F00009E2DFC01EF01FE0184912196882311F46E
:104F100081E005C0B8010E946731F5CF80E0DF91E4
:104F2000CF911F910F91FF90EF900895EF92FF9214
:104F30001F93DF93CF9300D000D0CDB7DEB7182FEB
:104F4000CB017E010894E11CF11CB7010E941037CF
:104F5000812FB70188DF0F900F900F900F90CF91A6
:104F6000DF911F91FF90EF900895CF92DF92EF9223
:104F7000FF920F931F939AE0899F7001112486E29C
:104F800095E0E80EF91E74E0C72ED12CCE0CDF1C84
:104F9000862F642F41E021E086010E949F30C601E8
:104FA0000E94E230F7011082808591850E945C3179
:104FB0001F910F91FF90EF90DF90CF900895109286
:104FC00026058BE591E090932F0580932E05109296
:104FD000300585E691E090933905809338058AEF96
:104FE00097E293CB882319F0CB010C94E230CB01EC
:104FF0000C94F9300F931F93CF93DF93C6E2D5E063
:1050000002E011E088818823B1F189818130D9F0F3
:10501000813018F0823079F528C08FB7F8948FBFAF
:10502000E885F98584819581892B29F1BE016C5F22
:105030007F4F80E0D7DF888599850E94A6318A83DB
:105040001B83198318C08A81BE016C5F7F4F8170FA
:10505000C9DF8B81883011F409830DC08B818F5F8C
:105060008B838A8186958A8306C0BE016C5F7F4FE1
:1050700081E0B8DF19822A9685E0CA33D80709F0A3
:10508000C1CFDF91CF911F910F91089583B190E02F
:1050900024E0969587952A95E1F78170089580918F
:1050A0000206882351F41092030680916B00806100
:1050B00080936B0081E08093020608958FE691E073
:1050C00008951F920F920FB60F9211242F933F93C2
:1050D0004F935F936F937F938F939F93AF93BF9300
:1050E000EF93FF93D3DF882389F4A99A80916E0010
:1050F000826080936E0016BC88E687BD80916B004D
:105100008F7E80936B0081E080930306FF91EF9187
:10511000BF91AF919F918F917F916F915F914F91CF
:105120003F912F910F900FBE0F901F9018951F92D7
:105130000F920FB60F9211241F932F933F934F930B
:105140005F936F937F938F939F93AF93BF93EF93EF
:10515000FF93109103061230B1F0133051F111306A
:1051600009F03CC093DF882341F4109204061093A9
:10517000050680ED87BD82E015C080916E008D7FB1
:1051800080936E0026C082DF882339F08091040668
:1051900090910506892B809304068091050680383E
:1051A00021F483E08093030619C0880F80930506DD
:1051B00015C06CDF882331F0809104066FE671E042
:1051C0000E94673180916E008D7F80936E001092F7
:1051D000030680916B00806180936B00FF91EF91DB
:1051E000BF91AF919F918F917F916F915F914F91FF
:1051F0003F912F911F910F900FBE0F901F90189508
:105200008FE691E00E945C3124982C9A82E084BD64
:1052100085BD80ED87BD16BCA99AE8E6F0E08081E7
:1052200081608083109202063ACF819A0895819816
:10523000089581E08093FF0608951092FF06089577
:1052400080910007823051F0833018F4813041F4AE
:1052500009C0833079F0843019F404C082E00895E5
:1052600080E008958091FF06882311F484E008957A
:1052700081E0089583E008959093100780930F07CD
:10528000089590931207809311070895909314073F
:105290008093130708959093160780931507089538
:1052A00090931A0780931907089590931C07809391
:1052B0001B07089590931E0780931D0708959093F0
:1052C000200780931F07089590932207809321075A
:1052D00008959093240780932307089590932607B9
:1052E00080932507089590932807809327070895B2
:1052F00090932A0780932907089590932C07809311
:105300002B07089590932E0780932D07089590936F
:10531000300780932F07089580E06AE194CDBC01A7
:1053200080E004DE80E06DE08ECDBC0180E0FECD4B
:10533000BC0180E098CDBC0180E0BDCDFCDF80E009
:105340006DE081CD80E066CDEF92FF920F931F93C9
:10535000DF93CF9300D00F92CDB7DEB78C017B01E6
:10536000BE016F5F7F4FAE014E5F5F4F98010E949D
:1053700090348981882339F08A81F7018083C801BC
:105380000E945A3602C0F70110820F900F900F90C2
:10539000CF91DF911F910F91FF90EF900895EF92C1
:1053A000FF920F931F93DF93CF9300D000D0CDB720
:1053B000DEB78C017E010894E11CF11CB701A80145
:1053C0000E946D356B817C8189819A814DE751E026
:1053D0000E94D135C801B701A8010E946D356B81CB
:1053E0007C8189819A8141E851E00E94D13582E037
:1053F000809309070F900F900F900F90CF91DF913E
:105400001F910F91FF90EF9008952F923F924F922E
:105410005F926F927F928F929F92AF92BF92CF9244
:10542000DF92EF92FF920F931F93DF93CF93CDB74D
:10543000DEB76F970FB6F894DEBF0FBECDBF8FB744
:10544000F8948FBFE0910107F0910207848040E15A
:10545000A42EB12CAC0EBD1E36E0632E712C6C0E4A
:105460007D1E6E010894C11CD11C28E0E22EF12C97
:10547000EC0EFD1E9CE0292E312C2C0E3D1E84E1ED
:10548000482E512C4C0E5D1E15C380910107909142
:1054900002075CD7982E80910907813009F4C2C2B7
:1054A000813020F0823009F002C3D5C28DE0981619
:1054B00009F054C280917A01882309F447C300910E
:1054C0007B0110917C01D8019C919B3209F0B2C103
:1054D00089E791E0B7010E9410378BE26AE3A701E8
:1054E000910187010E942235C10163EF75E04DE013
:1054F00050E00E94BB3280930C07863009F413C140
:10550000873090F4823009F490C0833030F48823DF
:1055100009F1813009F01AC361C0843009F4B3C0C5
:10552000853008F0F6C093C08A3009F430C18B3062
:1055300038F4883009F4FEC0893009F007C318C177
:105540008C3009F460C18C3008F446C18D3009F00C
:10555000FDC268C1C701F4D7C701B601AE014E5FF5
:105560005F4F97010E9490348981882309F4EEC22D
:10557000C7010E9448368C3209F0E8C2C7010E9478
:105580005A36C701B601AE014C5F5F4F97010E94CA
:1055900090348981882309F4D9C2C7010E94483612
:1055A0008C3209F0D3C2C7010E945A36C701B60136
:1055B000A30120E030E00E9490348981882309F41F
:1055C000C5C2E0912D07F0912E07309709F4BEC2B5
:1055D0004E815F818A816C810995B8C2C701B5018E
:1055E00040E050E00E946D35C501B201ADDEC5015D
:1055F000BE016B5E7F4FA8DEC501BE016A5E7F4FB4
:10560000A3DEC501BE01695E7F4F9EDEC501BE01FE
:10561000685E7F4F99DEC501BE01675E7F4F94DEF5
:10562000E0912B07F0912C076FC0C70189D7C70104
:10563000B601A30120E030E00E94903489818823E4
:1056400009F484C2E0912107F0912207D6C0C70176
:1056500077D7C701B601A30120E030E00E94903463
:105660008981882309F472C2E0911D07F0911E0719
:10567000309709F46BC220E08E819F81892B09F05D
:1056800021E0822F69C1C7015BD7C701B601A20122
:1056900097010E9424348981882351F0C7010E9418
:1056A00048368C3221F4C7010E945A3601C0198253
:1056B0008981882341F0C701B601AE01485E5F4F82
:1056C00097010E9424348981882351F0C7010E94E8
:1056D00048368C3221F4C7010E945A3601C0198223
:1056E0008981882349F0C701B601AE01445E5F4F4E
:1056F00020E030E00E9424348981882309F426C206
:10570000E0911707F0911807309709F41FC2C20102
:10571000D1C0C70115D7C701B6014DE057E09701C9
:105720000E94903404C010920E0710920D07C7011A
:1057300036DE0CC2C701B501A7010E946D35C70155
:105740000E9448368C3209F001C2C7010E945A36C5
:10575000C701B601A30120E030E00E9490348981A6
:10576000882309F4F3C1E0912707F091280745C089
:10577000C701B50140E050E00E946D35E091290776
:10578000F0912A07309709F4E1C1C50193C0C70120
:10579000D7D6C701B601A30197010E949034898131
:1057A000882309F4D3C1C7010E9448368C3209F01E
:1057B000CDC1C7010E945A36C701B601A30120E03E
:1057C00030E00E9490348981882309F4BFC1E091C0
:1057D0002507F091260711C0C701B2D6C701B6014F
:1057E000A30120E030E00E9490348981882309F4ED
:1057F000ADC1E0912307F0912407309709F4A6C1C9
:105800008E819F8157C0C7019BD6C7016AEE76E0A3
:105810000E94A336882309F499C1E0911B07F091F7
:105820001C07C2C083EE96E00E940D13C7010E94C0
:10583000E8128CC1892F80538A3050F4E09113070D
:10584000F0911407309709F481C189E791E032C0E3
:105850009335E9F4C8016BED76E00E94F13D08173D
:10586000190751F589E791E067E070E0A7010E9410
:10587000F536C70162EB76E04EE050E07CD6E09171
:105880001107F0911207309709F066C05FC1943498
:1058900099F4C8016EEC76E00E94F13D08171907F3
:1058A00059F4E0911907F0911A07309709F44EC1A5
:1058B00080E090E009954AC189E791E0B7010E9434
:1058C0001037C70166E975E04EE050E054D680938A
:1058D0004007863041F1873060F48230C9F0833070
:1058E00018F4813081F519C0833079F0853059F58D
:1058F00017C08930A9F08A3018F4883021F519C012
:105900008D30A1F08E30F9F417C085E397E002C026
:1059100088E297E00E940D1316C081E297E0FACF6B
:105920008AE197E0F7CF8CE097E0F4CF8EEF96E036
:10593000F1CF87EF96E0EECF80EF96E00E940D1357
:10594000C7010E94E812E0910F07F091100730970D
:1059500009F4FCC0809140070995F8C0BAE09B1695
:1059600029F4809108078D3009F4A1C0892D69E7D9
:1059700071E00E948C3580917A01E82FF0E0E230EE
:10598000F1050CF494C000917B0110917C01D801C9
:105990008C9111969C918E3361F4903209F087C0FE
:1059A000E0912F07F0913007309709F4CFC00995A7
:1059B000CDC08B3209F07BC0993409F078C0E00F7C
:1059C000F11F319780818A3309F071C0C80160E40A
:1059D00077E00E94F13D0817190709F068C089E7D0
:1059E00091E065E070E0A5010E94F53619821F8202
:1059F0001E82C501B601A301950192D78981882332
:105A000009F455C0C5010E9448368A3309F04FC0D9
:105A10008E819F8190930B0780930A0781E080938A
:105A2000090794C0892D69E771E00E948C35809147
:105A30007A0190E020910A0730910B0782179307B3
:105A4000B0F1E0911507F09116073097E9F089E77A
:105A500091E0099519C0BDE09B16E9F480910C070F
:105A60008550823088F4E0911F07F091200730972D
:105A700059F080910D0790910E076DE771E041E8B4
:105A800051E029E731E0099589E791E00E948535E9
:105A9000109209070CC0EAE09E1621F480910807D5
:105AA0008D3029F0892D69E771E00E948C35909244
:105AB00008078A94882009F0E8CC8091000781309B
:105AC00059F0813030F0823071F1843009F042C0F9
:105AD0002FC08091FF0630C080914007883039F494
